{
  "address": "0xdbe147fc80b49871e2a8D60cc89D51b11bc88b35",
  "abi": [
    {
      "inputs": [
        {
          "internalType": "address",
          "name": "_founderPass",
          "type": "address"
        }
      ],
      "stateMutability": "nonpayable",
      "type": "constructor"
    },
    {
      "anonymous": false,
      "inputs": [
        {
          "indexed": true,
          "internalType": "uint256",
          "name": "tokenId",
          "type": "uint256"
        }
      ],
      "name": "AlienBurned",
      "type": "event"
    },
    {
      "anonymous": false,
      "inputs": [
        {
          "indexed": true,
          "internalType": "uint256",
          "name": "tokenId",
          "type": "uint256"
        }
      ],
      "name": "AlienMinted",
      "type": "event"
    },
    {
      "anonymous": false,
      "inputs": [
        {
          "indexed": true,
          "internalType": "uint256",
          "name": "tokenId",
          "type": "uint256"
        }
      ],
      "name": "AlienStolen",
      "type": "event"
    },
    {
      "anonymous": false,
      "inputs": [
        {
          "indexed": true,
          "internalType": "address",
          "name": "owner",
          "type": "address"
        },
        {
          "indexed": true,
          "internalType": "address",
          "name": "approved",
          "type": "address"
        },
        {
          "indexed": true,
          "internalType": "uint256",
          "name": "tokenId",
          "type": "uint256"
        }
      ],
      "name": "Approval",
      "type": "event"
    },
    {
      "anonymous": false,
      "inputs": [
        {
          "indexed": true,
          "internalType": "address",
          "name": "owner",
          "type": "address"
        },
        {
          "indexed": true,
          "internalType": "address",
          "name": "operator",
          "type": "address"
        },
        {
          "indexed": false,
          "internalType": "bool",
          "name": "approved",
          "type": "bool"
        }
      ],
      "name": "ApprovalForAll",
      "type": "event"
    },
    {
      "anonymous": false,
      "inputs": [
        {
          "indexed": true,
          "internalType": "uint256",
          "name": "tokenId",
          "type": "uint256"
        }
      ],
      "name": "MarineBurned",
      "type": "event"
    },
    {
      "anonymous": false,
      "inputs": [
        {
          "indexed": true,
          "internalType": "uint256",
          "name": "tokenId",
          "type": "uint256"
        }
      ],
      "name": "MarineMinted",
      "type": "event"
    },
    {
      "anonymous": false,
      "inputs": [
        {
          "indexed": true,
          "internalType": "uint256",
          "name": "tokenId",
          "type": "uint256"
        }
      ],
      "name": "MarineStolen",
      "type": "event"
    },
    {
      "anonymous": false,
      "inputs": [
        {
          "indexed": true,
          "internalType": "address",
          "name": "previousOwner",
          "type": "address"
        },
        {
          "indexed": true,
          "internalType": "address",
          "name": "newOwner",
          "type": "address"
        }
      ],
      "name": "OwnershipTransferred",
      "type": "event"
    },
    {
      "anonymous": false,
      "inputs": [
        {
          "indexed": false,
          "internalType": "address",
          "name": "account",
          "type": "address"
        }
      ],
      "name": "Paused",
      "type": "event"
    },
    {
      "anonymous": false,
      "inputs": [
        {
          "indexed": true,
          "internalType": "address",
          "name": "from",
          "type": "address"
        },
        {
          "indexed": true,
          "internalType": "address",
          "name": "to",
          "type": "address"
        },
        {
          "indexed": true,
          "internalType": "uint256",
          "name": "tokenId",
          "type": "uint256"
        }
      ],
      "name": "Transfer",
      "type": "event"
    },
    {
      "anonymous": false,
      "inputs": [
        {
          "indexed": false,
          "internalType": "address",
          "name": "account",
          "type": "address"
        }
      ],
      "name": "Unpaused",
      "type": "event"
    },
    {
      "inputs": [],
      "name": "PAID_TOKENS",
      "outputs": [
        {
          "internalType": "uint256",
          "name": "",
          "type": "uint256"
        }
      ],
      "stateMutability": "view",
      "type": "function"
    },
    {
      "inputs": [
        {
          "internalType": "address",
          "name": "addr",
          "type": "address"
        }
      ],
      "name": "addAdmin",
      "outputs": [],
      "stateMutability": "nonpayable",
      "type": "function"
    },
    {
      "inputs": [],
      "name": "airdropMintingCount",
      "outputs": [
        {
          "internalType": "uint256",
          "name": "",
          "type": "uint256"
        }
      ],
      "stateMutability": "view",
      "type": "function"
    },
    {
      "inputs": [
        {
          "internalType": "uint256",
          "name": "",
          "type": "uint256"
        },
        {
          "internalType": "uint256",
          "name": "",
          "type": "uint256"
        }
      ],
      "name": "aliases",
      "outputs": [
        {
          "internalType": "uint8",
          "name": "",
          "type": "uint8"
        }
      ],
      "stateMutability": "view",
      "type": "function"
    },
    {
      "inputs": [
        {
          "internalType": "address",
          "name": "to",
          "type": "address"
        },
        {
          "internalType": "uint256",
          "name": "tokenId",
          "type": "uint256"
        }
      ],
      "name": "approve",
      "outputs": [],
      "stateMutability": "nonpayable",
      "type": "function"
    },
    {
      "inputs": [
        {
          "internalType": "address",
          "name": "owner",
          "type": "address"
        }
      ],
      "name": "balanceOf",
      "outputs": [
        {
          "internalType": "uint256",
          "name": "",
          "type": "uint256"
        }
      ],
      "stateMutability": "view",
      "type": "function"
    },
    {
      "inputs": [
        {
          "internalType": "uint256",
          "name": "tokenId",
          "type": "uint256"
        }
      ],
      "name": "burn",
      "outputs": [],
      "stateMutability": "nonpayable",
      "type": "function"
    },
    {
      "inputs": [],
      "name": "claim",
      "outputs": [],
      "stateMutability": "nonpayable",
      "type": "function"
    },
    {
      "inputs": [
        {
          "internalType": "uint256",
          "name": "",
          "type": "uint256"
        }
      ],
      "name": "existingCombinations",
      "outputs": [
        {
          "internalType": "uint256",
          "name": "",
          "type": "uint256"
        }
      ],
      "stateMutability": "view",
      "type": "function"
    },
    {
      "inputs": [],
      "name": "founderPass",
      "outputs": [
        {
          "internalType": "contract IFounderPass",
          "name": "",
          "type": "address"
        }
      ],
      "stateMutability": "view",
      "type": "function"
    },
    {
      "inputs": [
        {
          "internalType": "uint256",
          "name": "tokenId",
          "type": "uint256"
        }
      ],
      "name": "getApproved",
      "outputs": [
        {
          "internalType": "address",
          "name": "",
          "type": "address"
        }
      ],
      "stateMutability": "view",
      "type": "function"
    },
    {
      "inputs": [],
      "name": "getMaxTokens",
      "outputs": [
        {
          "internalType": "uint256",
          "name": "",
          "type": "uint256"
        }
      ],
      "stateMutability": "view",
      "type": "function"
    },
    {
      "inputs": [],
      "name": "getPaidTokens",
      "outputs": [
        {
          "internalType": "uint256",
          "name": "",
          "type": "uint256"
        }
      ],
      "stateMutability": "view",
      "type": "function"
    },
    {
      "inputs": [
        {
          "internalType": "uint256",
          "name": "tokenId",
          "type": "uint256"
        }
      ],
      "name": "getTokenTraits",
      "outputs": [
        {
          "components": [
            {
              "internalType": "bool",
              "name": "isMarine",
              "type": "bool"
            },
            {
              "internalType": "uint8",
              "name": "M_Weapon",
              "type": "uint8"
            },
            {
              "internalType": "uint8",
              "name": "M_Back",
              "type": "uint8"
            },
            {
              "internalType": "uint8",
              "name": "M_Headgear",
              "type": "uint8"
            },
            {
              "internalType": "uint8",
              "name": "M_Eyes",
              "type": "uint8"
            },
            {
              "internalType": "uint8",
              "name": "M_Emblem",
              "type": "uint8"
            },
            {
              "internalType": "uint8",
              "name": "M_Body",
              "type": "uint8"
            },
            {
              "internalType": "uint8",
              "name": "A_Headgear",
              "type": "uint8"
            },
            {
              "internalType": "uint8",
              "name": "A_Eye",
              "type": "uint8"
            },
            {
              "internalType": "uint8",
              "name": "A_Back",
              "type": "uint8"
            },
            {
              "internalType": "uint8",
              "name": "A_Mouth",
              "type": "uint8"
            },
            {
              "internalType": "uint8",
              "name": "A_Body",
              "type": "uint8"
            },
            {
              "internalType": "uint8",
              "name": "rankIndex",
              "type": "uint8"
            }
          ],
          "internalType": "struct IMnA.MarineAlien",
          "name": "",
          "type": "tuple"
        }
      ],
      "stateMutability": "view",
      "type": "function"
    },
    {
      "inputs": [
        {
          "internalType": "uint256",
          "name": "tokenId",
          "type": "uint256"
        }
      ],
      "name": "getTokenWriteBlock",
      "outputs": [
        {
          "internalType": "uint64",
          "name": "",
          "type": "uint64"
        }
      ],
      "stateMutability": "view",
      "type": "function"
    },
    {
      "inputs": [],
      "name": "isAirdropStage",
      "outputs": [
        {
          "internalType": "bool",
          "name": "",
          "type": "bool"
        }
      ],
      "stateMutability": "view",
      "type": "function"
    },
    {
      "inputs": [
        {
          "internalType": "address",
          "name": "owner",
          "type": "address"
        },
        {
          "internalType": "address",
          "name": "operator",
          "type": "address"
        }
      ],
      "name": "isApprovedForAll",
      "outputs": [
        {
          "internalType": "bool",
          "name": "",
          "type": "bool"
        }
      ],
      "stateMutability": "view",
      "type": "function"
    },
    {
      "inputs": [
        {
          "internalType": "uint256",
          "name": "tokenId",
          "type": "uint256"
        }
      ],
      "name": "isMarine",
      "outputs": [
        {
          "internalType": "bool",
          "name": "",
          "type": "bool"
        }
      ],
      "stateMutability": "view",
      "type": "function"
    },
    {
      "inputs": [],
      "name": "maxTokens",
      "outputs": [
        {
          "internalType": "uint256",
          "name": "",
          "type": "uint256"
        }
      ],
      "stateMutability": "view",
      "type": "function"
    },
    {
      "inputs": [
        {
          "internalType": "address",
          "name": "recipient",
          "type": "address"
        },
        {
          "internalType": "uint256",
          "name": "seed",
          "type": "uint256"
        }
      ],
      "name": "mint",
      "outputs": [],
      "stateMutability": "nonpayable",
      "type": "function"
    },
    {
      "inputs": [],
      "name": "mintForAirdrop",
      "outputs": [],
      "stateMutability": "nonpayable",
      "type": "function"
    },
    {
      "inputs": [],
      "name": "minted",
      "outputs": [
        {
          "internalType": "uint16",
          "name": "",
          "type": "uint16"
        }
      ],
      "stateMutability": "view",
      "type": "function"
    },
    {
      "inputs": [],
      "name": "name",
      "outputs": [
        {
          "internalType": "string",
          "name": "",
          "type": "string"
        }
      ],
      "stateMutability": "view",
      "type": "function"
    },
    {
      "inputs": [
        {
          "internalType": "address",
          "name": "",
          "type": "address"
        },
        {
          "internalType": "address",
          "name": "from",
          "type": "address"
        },
        {
          "internalType": "uint256",
          "name": "",
          "type": "uint256"
        },
        {
          "internalType": "bytes",
          "name": "",
          "type": "bytes"
        }
      ],
      "name": "onERC721Received",
      "outputs": [
        {
          "internalType": "bytes4",
          "name": "",
          "type": "bytes4"
        }
      ],
      "stateMutability": "pure",
      "type": "function"
    },
    {
      "inputs": [],
      "name": "owner",
      "outputs": [
        {
          "internalType": "address",
          "name": "",
          "type": "address"
        }
      ],
      "stateMutability": "view",
      "type": "function"
    },
    {
      "inputs": [
        {
          "internalType": "uint256",
          "name": "tokenId",
          "type": "uint256"
        }
      ],
      "name": "ownerOf",
      "outputs": [
        {
          "internalType": "address",
          "name": "",
          "type": "address"
        }
      ],
      "stateMutability": "view",
      "type": "function"
    },
    {
      "inputs": [],
      "name": "paused",
      "outputs": [
        {
          "internalType": "bool",
          "name": "",
          "type": "bool"
        }
      ],
      "stateMutability": "view",
      "type": "function"
    },
    {
      "inputs": [],
      "name": "randomSeedGenerator",
      "outputs": [
        {
          "internalType": "contract IRandomSeedGenerator",
          "name": "",
          "type": "address"
        }
      ],
      "stateMutability": "view",
      "type": "function"
    },
    {
      "inputs": [
        {
          "internalType": "uint256",
          "name": "",
          "type": "uint256"
        },
        {
          "internalType": "uint256",
          "name": "",
          "type": "uint256"
        }
      ],
      "name": "rarities",
      "outputs": [
        {
          "internalType": "uint8",
          "name": "",
          "type": "uint8"
        }
      ],
      "stateMutability": "view",
      "type": "function"
    },
    {
      "inputs": [
        {
          "internalType": "address",
          "name": "addr",
          "type": "address"
        }
      ],
      "name": "removeAdmin",
      "outputs": [],
      "stateMutability": "nonpayable",
      "type": "function"
    },
    {
      "inputs": [],
      "name": "renounceOwnership",
      "outputs": [],
      "stateMutability": "nonpayable",
      "type": "function"
    },
    {
      "inputs": [
        {
          "internalType": "address",
          "name": "from",
          "type": "address"
        },
        {
          "internalType": "address",
          "name": "to",
          "type": "address"
        },
        {
          "internalType": "uint256",
          "name": "tokenId",
          "type": "uint256"
        }
      ],
      "name": "safeTransferFrom",
      "outputs": [],
      "stateMutability": "nonpayable",
      "type": "function"
    },
    {
      "inputs": [
        {
          "internalType": "address",
          "name": "from",
          "type": "address"
        },
        {
          "internalType": "address",
          "name": "to",
          "type": "address"
        },
        {
          "internalType": "uint256",
          "name": "tokenId",
          "type": "uint256"
        },
        {
          "internalType": "bytes",
          "name": "_data",
          "type": "bytes"
        }
      ],
      "name": "safeTransferFrom",
      "outputs": [],
      "stateMutability": "nonpayable",
      "type": "function"
    },
    {
      "inputs": [
        {
          "internalType": "uint256",
          "name": "_airdropMintingCount",
          "type": "uint256"
        }
      ],
      "name": "setAirdropMintingCount",
      "outputs": [],
      "stateMutability": "nonpayable",
      "type": "function"
    },
    {
      "inputs": [
        {
          "internalType": "bool",
          "name": "_isAirdropStage",
          "type": "bool"
        }
      ],
      "name": "setAirdropStage",
      "outputs": [],
      "stateMutability": "nonpayable",
      "type": "function"
    },
    {
      "inputs": [
        {
          "internalType": "address",
          "name": "operator",
          "type": "address"
        },
        {
          "internalType": "bool",
          "name": "approved",
          "type": "bool"
        }
      ],
      "name": "setApprovalForAll",
      "outputs": [],
      "stateMutability": "nonpayable",
      "type": "function"
    },
    {
      "inputs": [
        {
          "internalType": "address",
          "name": "_traits",
          "type": "address"
        },
        {
          "internalType": "address",
          "name": "_stakingPool",
          "type": "address"
        },
        {
          "internalType": "address",
          "name": "_randomSeedGenerator",
          "type": "address"
        }
      ],
      "name": "setContracts",
      "outputs": [],
      "stateMutability": "nonpayable",
      "type": "function"
    },
    {
      "inputs": [
        {
          "internalType": "uint256",
          "name": "_paidTokens",
          "type": "uint256"
        }
      ],
      "name": "setPaidTokens",
      "outputs": [],
      "stateMutability": "nonpayable",
      "type": "function"
    },
    {
      "inputs": [
        {
          "internalType": "bool",
          "name": "_paused",
          "type": "bool"
        }
      ],
      "name": "setPaused",
      "outputs": [],
      "stateMutability": "nonpayable",
      "type": "function"
    },
    {
      "inputs": [],
      "name": "stakingPool",
      "outputs": [
        {
          "internalType": "contract IStakingPool",
          "name": "",
          "type": "address"
        }
      ],
      "stateMutability": "view",
      "type": "function"
    },
    {
      "inputs": [
        {
          "internalType": "bytes4",
          "name": "interfaceId",
          "type": "bytes4"
        }
      ],
      "name": "supportsInterface",
      "outputs": [
        {
          "internalType": "bool",
          "name": "",
          "type": "bool"
        }
      ],
      "stateMutability": "view",
      "type": "function"
    },
    {
      "inputs": [],
      "name": "symbol",
      "outputs": [
        {
          "internalType": "string",
          "name": "",
          "type": "string"
        }
      ],
      "stateMutability": "view",
      "type": "function"
    },
    {
      "inputs": [
        {
          "internalType": "uint256",
          "name": "index",
          "type": "uint256"
        }
      ],
      "name": "tokenByIndex",
      "outputs": [
        {
          "internalType": "uint256",
          "name": "",
          "type": "uint256"
        }
      ],
      "stateMutability": "view",
      "type": "function"
    },
    {
      "inputs": [
        {
          "internalType": "address",
          "name": "owner",
          "type": "address"
        },
        {
          "internalType": "uint256",
          "name": "index",
          "type": "uint256"
        }
      ],
      "name": "tokenOfOwnerByIndex",
      "outputs": [
        {
          "internalType": "uint256",
          "name": "",
          "type": "uint256"
        }
      ],
      "stateMutability": "view",
      "type": "function"
    },
    {
      "inputs": [
        {
          "internalType": "uint256",
          "name": "tokenId",
          "type": "uint256"
        }
      ],
      "name": "tokenURI",
      "outputs": [
        {
          "internalType": "string",
          "name": "",
          "type": "string"
        }
      ],
      "stateMutability": "view",
      "type": "function"
    },
    {
      "inputs": [],
      "name": "totalSupply",
      "outputs": [
        {
          "internalType": "uint256",
          "name": "",
          "type": "uint256"
        }
      ],
      "stateMutability": "view",
      "type": "function"
    },
    {
      "inputs": [],
      "name": "traits",
      "outputs": [
        {
          "internalType": "contract ITraits",
          "name": "",
          "type": "address"
        }
      ],
      "stateMutability": "view",
      "type": "function"
    },
    {
      "inputs": [
        {
          "internalType": "address",
          "name": "from",
          "type": "address"
        },
        {
          "internalType": "address",
          "name": "to",
          "type": "address"
        },
        {
          "internalType": "uint256",
          "name": "tokenId",
          "type": "uint256"
        }
      ],
      "name": "transferFrom",
      "outputs": [],
      "stateMutability": "nonpayable",
      "type": "function"
    },
    {
      "inputs": [
        {
          "internalType": "address",
          "name": "newOwner",
          "type": "address"
        }
      ],
      "name": "transferOwnership",
      "outputs": [],
      "stateMutability": "nonpayable",
      "type": "function"
    },
    {
      "inputs": [
        {
          "internalType": "uint16[]",
          "name": "tokenIds",
          "type": "uint16[]"
        }
      ],
      "name": "updateOriginAccess",
      "outputs": [],
      "stateMutability": "nonpayable",
      "type": "function"
    },
    {
      "inputs": [
        {
          "internalType": "address",
          "name": "recipient",
          "type": "address"
        },
        {
          "internalType": "uint256",
          "name": "tokenId",
          "type": "uint256"
        }
      ],
      "name": "withdrawUnClaimed",
      "outputs": [],
      "stateMutability": "nonpayable",
      "type": "function"
    }
  ],
  "transactionHash": "0xe65ca9f0741f4e9007ca0c6841b84a24256afe7e21bc1b3410970302dce50d38",
  "args": [
    "0xf4a57Dac3D3a4772347F813c6bF52b6286ac649e"
  ],
  "numDeployments": 1,
  "solcInputHash": "71036bc916121f26ce4458c835fb3c3a",
  "bytecode": "0x6080604052616d5d600b55611b39600c556064600d553480156200002257600080fd5b5060405162005745380380620057458339810160408190526200004591620012ed565b604080518082018252601581527f4d6172696e6573202620416c69656e732047616d6500000000000000000000006020808301918252835180850190945260038452624d6e4160e81b908401528151919291620000a591600091620011a4565b508051620000bb906001906020840190620011a4565b505050620000d8620000d26200109c60201b60201c565b620010a0565b600a805460ff60a01b19169055620000ef620010f2565b604080516102408101825260ff81526026602082015260329181019190915260ed606082015260d3608082015260c960a082015260f860c0820152603d60e08201526008610100820152602d6101208201819052606a6101408301526012610160830152607a61018083015260316101a08301526101c082015260226101e082015260136102008201819052601061022083015260006200019592910190601262001233565b506040805161040081018252600080825260208083018290526001938301849052600260608401819052600360808501819052600460a08601819052600560c08701819052600660e088018190526007610100890181905260086101208a0181905260096101408b01819052600a6101608c01526101808b018a90526101a08b018a90526101c08b01999099526101e08a018b90526102008a018b90526102208a019a909a52610240890186905261026089018690526102808901959095526102a088018490526102c08801939093526102e0870182905261030087019190915261032086018190526103408601526103608501526103808401526103a08301939093526103c0820152600b6103e0820152620002b691601f919062001233565b50604080516101608101825260ff815260cc6020820152601e9181019190915260e160608201526047608082015260f560a082015260c460c0820152605160e08201526028610100820152601c610120820152601461014082018190526200032091600b62001233565b5060408051610200810182526000808252602080830182905260019383018490526002606084018190526003608085015260a0840183905260c0840183905260e084018390526101008401839052610120840183905261014084019290925261016083018490526101808301939093526101a082018190526101c082015260046101e0820152620003b49190601062001233565b50604080516102408101825260ff815260bc6020820152600e9181019190915260db606082015260d0608082015260ef60a08201819052603760c0830152604b60e08301526089610100830152610120820152607e610140820152602f61016082015260f561018082015260dd6101a082015260a36101c0820152607a6101e0820152605161020082015260286102208201526200045790601590601262001233565b506040805161040081018252600080825260208083018290526001938301849052600260608401819052600360808501819052600460a08601819052600560c08701819052600660e088018190526007610100890181905260086101208a0181905260096101408b0152600a6101608b01526101808a018990526101a08a018990526101c08a018990526101e08a018990526102008a018990526102208a019890985261024089018a905261026089019990995261028088018590526102a088018590526102c08801949094526102e0870183905261030087019290925261032086018190526103408601526103608501526103808401526103a08301939093526103c0820152600b6103e082015262000575916021919062001233565b50604080516102408101825260ff81526026602082015260329181019190915260ed606082015260d3608082015260c960a082015260f860c0820152603d60e08201526008610100820152602d6101208201819052606a6101408301526012610160830152607a61018083015260316101a08301526101c082015260226101e082015260136102008201819052601061022083015260036200061c92910190601262001233565b506040805161040081018252600080825260208083018290526001938301849052600260608401819052600360808501819052600460a08601819052600560c08701819052600660e088018190526007610100890181905260086101208a0181905260096101408b01819052600a6101608c01526101808b018a90526101a08b018a90526101c08b01999099526101e08a018b90526102008a018b90526102208a019a909a52610240890186905261026089018690526102808901959095526102a088018490526102c08801939093526102e0870182905261030087019190915261032086018190526103408601526103608501526103808401526103a08301939093526103c0820152600b6103e08201526200073d916022919062001233565b50604080516102808101825260ff81526097602082015260ef9181019190915260db606082015260d76080820152606860a0820152601260c082015260e560e0820181905260d0610100830152610120820152601a610140820152607061016082015260e761018082015260766101a0820152602f6101c082015260f56101e082015260c461020082015260a3610220820152607a6102408201526041610260820152620007f090601790601462001233565b506040805161040081018252600080825260208083018290526001938301849052600260608401819052600360808501819052600460a08601819052600560c08701819052600660e088018190526007610100890181905260086101208a0181905260096101408b0152600a6101608b01819052600b6101808c01819052600c6101a08d0152600d6101c08d01526101e08c018b90526102008c018b90526102208c018b90526102408c019a909a526102608b018c90526102808b019b909b526102a08a01969096526102c08901949094526102e088019290925261030087015261032086018190526103408601526103608501526103808401526103a08301939093526103c0820152600e6103e082015262000911916023919062001233565b50604080516102808101825260ff81526049602082015260729181019190915260ba6060820152602b608082015260cc60a0820181905260b860c083015260e0820181905260f1610100830152603761012083015260c66101408301526066610160830152601e61018083015260f56101a08301526101c082015260a36101e08201526083610200820152606261022082015260416102408201526028610260820152620009c490601890601462001233565b506040805161040081018252600080825260208083018290526001938301849052600260608401819052600360808501819052600460a08601819052600560c08701819052600660e088018190526007610100890181905260086101208a015260096101408a01819052600a6101608b0152600b6101808b01526101a08a018990526101c08a018990526101e08a018990526102008a018990526102208a018990526102408a019890985261026089018a905261028089018a90526102a08901999099526102c088018590526102e088019490945261030087019290925261032086018190526103408601526103608501526103808401526103a08301939093526103c0820152600c6103e082015262000ae2916024919062001233565b50604080516101608101825260ff81526047602082015260a391810182905260666060820152607a608082015260a0810191909152603360c082015260f560e082015260b46101008201526056610120820152601461014082015262000b4d90601990600b62001233565b5060408051610200810182526000808252602082018190526001928201839052600260608301819052600360808401819052600460a08501819052600560c086015260e08501849052610100850184905261012085019390935261014084018590526101608401949094526101808301526101a08201929092526101c081019190915260066101e082015262000be890602590601062001233565b50604080516101608101825260ff81526070602082015260cc91810191909152606660608201526051608082015260b860a0820152604760c082015260f560e082015260a3610100820152603d610120820152601461014082015262000c5390601a90600b62001233565b5060408051610200810182526000808252602082018190526001928201839052600260608301819052600360808401819052600460a08501819052600560c086015260e08501849052610100850184905261012085019390935261014084018590526101608401949094526101808301526101a08201929092526101c081019190915260066101e082015262000cee90602690601062001233565b50604080516101608101825260ff815260f56020820152608f91810191909152605160608201819052603d6080830152607a60a0830152600a60c083015260cc60e083015260a3610100830152610120820152601461014082015262000d5990601b90600b62001233565b5060408051610200810182526000808252602082018190526001928201839052600260608301819052600360808401819052600460a08501819052600560c086015260e08501849052610100850184905261012085018490526101408501939093526101608401949094526101808301526101a08201929092526101c081019190915260066101e082015262000df490602790601062001233565b50604080516101608101825260ff815260f56020820152608f91810191909152605160608201819052603d6080830152607a60a0830152600a60c083015260cc60e083015260a3610100830152610120820152601461014082015262000e5f90601c90600b62001233565b5060408051610200810182526000808252602082018190526001928201839052600260608301819052600360808401819052600460a08501819052600560c086015260e08501849052610100850184905261012085018490526101408501939093526101608401949094526101808301526101a08201929092526101c081019190915260066101e082015262000efa90602890601062001233565b50604080516101608101825260ff8152603360208201819052608f9282019290925260286060820152601460808201819052607a60a0830181905260c083019390935260cc60e083015260a361010083015261012082019290925261014081019190915262000f6e90601d90600b62001233565b5060408051610200810182526000808252602082018190526001928201839052600260608301819052600360808401819052600460a08501819052600560c086015260e08501849052610100850184905261012085019390935261014084018590526101608401949094526101808301526101a08201929092526101c081019190915260066101e08201526200100990602990601062001233565b506040805160808101825260ff8152604f602082015260a591810191909152601960608201526200103f90601e90600462001233565b50604080516080810182526000815260016020820181905291810182905260608101919091526200107590602a90600462001233565b50602e80546001600160a01b0319166001600160a01b03929092169190911790556200135a565b3390565b600a80546001600160a01b038381166001600160a01b0319831681179093556040519116919082907f8be0079c531659141344cd1fd0a4f28419497f9722a3daafe3b4186f6b6457e090600090a35050565b62001106600a54600160a01b900460ff1690565b156200114b5760405162461bcd60e51b815260206004820152601060248201526f14185d5cd8589b194e881c185d5cd95960821b604482015260640160405180910390fd5b600a805460ff60a01b1916600160a01b1790557f62e78cea01bee320cd4e420270b5ea74000d11b0c9f74754ebdbfc544b05a258620011873390565b6040516001600160a01b03909116815260200160405180910390a1565b828054620011b2906200131d565b90600052602060002090601f016020900481019282620011d6576000855562001221565b82601f10620011f157805160ff191683800117855562001221565b8280016001018555821562001221579182015b828111156200122157825182559160200191906001019062001204565b506200122f929150620012d6565b5090565b82805482825590600052602060002090601f01602090048101928215620012215791602002820160005b838211156200129d57835183826101000a81548160ff021916908360ff16021790555092602001926001016020816000010492830192600103026200125d565b8015620012cc5782816101000a81549060ff02191690556001016020816000010492830192600103026200129d565b50506200122f9291505b5b808211156200122f5760008155600101620012d7565b600060208284031215620012ff578081fd5b81516001600160a01b038116811462001316578182fd5b9392505050565b6002810460018216806200133257607f821691505b602082108114156200135457634e487b7160e01b600052602260045260246000fd5b50919050565b6143db806200136a6000396000f3fe608060405234801561001057600080fd5b50600436106102f15760003560e01c80634f986b331161019d578063a5e4ee8c116100e9578063ca49d247116100a2578063e985e9c51161007c578063e985e9c5146106a0578063ebd17368146106b3578063f2fde38b146106de578063fd6b86e5146106f1576102f1565b8063ca49d24714610671578063e1fc334f14610684578063e831574214610697576102f1565b8063a5e4ee8c14610613578063b3066d4914610626578063b88d4fde14610639578063c084f5401461064c578063c08a192d14610655578063c87b56dd1461065e576102f1565b8063715018a61161015657806394e568471161013057806394e56847146105b857806395d89b41146105d8578063a1b8f374146105e0578063a22cb46514610600576102f1565b8063715018a61461058c57806377251f86146105945780638da5cb5b146105a7576102f1565b80634f986b33146105255780635c975abb146105385780636352211e1461054b5780636abcded11461055e578063704802751461056657806370a0823114610579576102f1565b806333df4b2c1161025c57806340c10f1911610215578063453e8149116101ef578063453e8149146104e15780634e71d92d146104e95780634f02c420146104f15780634f6ccce714610512576102f1565b806340c10f19146104a857806342842e0e146104bb57806342966c68146104ce576102f1565b806333df4b2c1461042f5780633431a7531461045457806335ca838b14610467578063368383911461047a5780634018b1f81461048d5780634019bfc714610495576102f1565b806316c38b3c116102ae57806316c38b3c146103be5780631785f53c146103d157806318160ddd146103e457806323b872dd146103f65780632f745c59146104095780632f97b0591461041c576102f1565b806301ffc9a7146102f657806306fdde031461031e578063081812fc14610333578063095ea7b31461035e5780630c56ae3b14610373578063150b7a0214610386575b600080fd5b610309610304366004613d24565b610704565b60405190151581526020015b60405180910390f35b610326610731565b6040516103159190613f56565b610346610341366004613dce565b6107c3565b6040516001600160a01b039091168152602001610315565b61037161036c366004613c27565b610838565b005b602b54610346906001600160a01b031681565b6103a5610394366004613ab4565b630a85bd0160e11b95945050505050565b6040516001600160e01b03199091168152602001610315565b6103716103cc366004613d0a565b6108a1565b6103716103df3660046139ba565b610963565b6008545b604051908152602001610315565b610371610404366004613a74565b6109ae565b6103e8610417366004613c27565b610a57565b61037161042a366004613c27565b610b82565b61044261043d366004613dfe565b610e21565b60405160ff9091168152602001610315565b610371610462366004613dce565b610e67565b610371610475366004613c52565b610e9a565b610442610488366004613dfe565b610ffb565b600c546103e8565b6103096104a3366004613dce565b61100b565b6103716104b6366004613c27565b611149565b6103716104c9366004613a74565b61135c565b6103716104dc366004613dce565b6113c1565b6103716114fc565b610371611786565b600e546104ff9061ffff1681565b60405161ffff9091168152602001610315565b6103e8610520366004613dce565b6119f0565b602d54610346906001600160a01b031681565b610309600a54600160a01b900460ff1690565b610346610559366004613dce565b611a57565b600b546103e8565b6103716105743660046139ba565b611b7a565b6103e86105873660046139ba565b611bc8565b610371611c8c565b6103716105a2366004613d0a565b611cc2565b600a546001600160a01b0316610346565b6105cb6105c6366004613dce565b611d08565b60405161031591906140cd565b610326611ea6565b6103e86105ee366004613dce565b60106020526000908152604090205481565b61037161060e366004613bf3565b611eb5565b600e546103099062010000900460ff1681565b610371610634366004613a2a565b611f18565b610371610647366004613b4d565b611f81565b6103e8600c5481565b6103e8600d5481565b61032661066c366004613dce565b611fee565b602e54610346906001600160a01b031681565b602c54610346906001600160a01b031681565b6103e8600b5481565b6103096106ae3660046139f2565b612188565b6106c66106c1366004613dce565b61220f565b6040516001600160401b039091168152602001610315565b6103716106ec3660046139ba565b612261565b6103716106ff366004613dce565b6122f9565b60006001600160e01b0319821663780e9d6360e01b1480610729575061072982612328565b90505b919050565b60606000805461074090614290565b80601f016020809104026020016040519081016040528092919081815260200182805461076c90614290565b80156107b95780601f1061078e576101008083540402835291602001916107b9565b820191906000526020600020905b81548152906001019060200180831161079c57829003601f168201915b5050505050905090565b336000908152602f6020526040812054829060ff1680610801575060008181526012602052604090205443600160401b9091046001600160401b0316105b6108265760405162461bcd60e51b815260040161081d90613ff2565b60405180910390fd5b61082f83612378565b91505b50919050565b336000908152602f6020526040902054819060ff1680610876575060008181526012602052604090205443600160401b9091046001600160401b0316105b6108925760405162461bcd60e51b815260040161081d90613ff2565b61089c838361240d565b505050565b602c546001600160a01b0316158015906108c55750602b546001600160a01b031615155b80156108db5750602d546001600160a01b031615155b61091b5760405162461bcd60e51b815260206004820152601160248201527010dbdb9d1c9858dd1cc81b9bdd081cd95d607a1b604482015260640161081d565b600a546001600160a01b031633146109455760405162461bcd60e51b815260040161081d90614047565b80156109585761095361251e565b610960565b6109606125a6565b50565b600a546001600160a01b0316331461098d5760405162461bcd60e51b815260040161081d90614047565b6001600160a01b03166000908152602f60205260409020805460ff19169055565b336000908152602f6020526040902054819060ff16806109ec575060008181526012602052604090205443600160401b9091046001600160401b0316105b610a085760405162461bcd60e51b815260040161081d90613ff2565b336000908152602f602052604090205460ff16610a4657610a2a335b83612630565b610a465760405162461bcd60e51b815260040161081d9061407c565b610a51848484612707565b50505050565b336000908152602f602052604081205460ff1680610a9457503260009081526011602052604090205443600160401b9091046001600160401b0316105b610ab05760405162461bcd60e51b815260040161081d90613ff2565b336000908152602f602052604090205460ff1680610af657506001600160a01b03831660009081526011602052604090205443600160401b9091046001600160401b0316105b610b125760405162461bcd60e51b815260040161081d90613ff2565b6000610b1e84846128b2565b336000908152602f602052604090205490915060ff1680610b5d575060008181526012602052604090205443600160401b9091046001600160401b0316105b610b795760405162461bcd60e51b815260040161081d90613ff2565b90505b92915050565b600a546001600160a01b03163314610bac5760405162461bcd60e51b815260040161081d90614047565b610bbf600a54600160a01b900460ff1690565b15610bdc5760405162461bcd60e51b815260040161081d9061401d565b600e5462010000900460ff1615610c435760405162461bcd60e51b815260206004820152602560248201527f43616e2077697468647261772061667465722061697264726f7020737461676560448201526420656e647360d81b606482015260840161081d565b6040516370a0823160e01b815230600482018190526000916370a082319060240160206040518083038186803b158015610c7c57600080fd5b505afa158015610c90573d6000803e3d6000fd5b505050506040513d601f19601f82011682018060405250810190610cb49190613de6565b905060008111610cfc5760405162461bcd60e51b81526020600482015260136024820152724e6f7468696e6720746f20776974686472617760681b604482015260640161081d565b6040516331a9108f60e11b81526004810183905230908190636352211e9060240160206040518083038186803b158015610d3557600080fd5b505afa158015610d49573d6000803e3d6000fd5b505050506040513d601f19601f82011682018060405250810190610d6d91906139d6565b6001600160a01b031614610db55760405162461bcd60e51b815260206004820152600f60248201526e125b9d985b1a59081d1bdad95b9259608a1b604482015260640161081d565b604051632142170760e11b815230600482018190526001600160a01b038516602483015260448201849052906342842e0e90606401600060405180830381600087803b158015610e0457600080fd5b505af1158015610e18573d6000803e3d6000fd5b50505050505050565b601382600c8110610e3157600080fd5b018181548110610e4057600080fd5b9060005260206000209060209182820401919006915091509054906101000a900460ff1681565b600a546001600160a01b03163314610e915760405162461bcd60e51b815260040161081d90614047565b61ffff16600c55565b336000908152602f602052604090205460ff16610ec95760405162461bcd60e51b815260040161081d90613fbb565b604080518082018252426001600160401b038181168352438082166020808601918252326000908152601190915295862094518554915167ffffffffffffffff199092169084161767ffffffffffffffff60401b1916600160401b91909316029190911790925590915b8351811015610a51576040518060400160405280836001600160401b03168152602001846001600160401b031681525060126000868481518110610f8757634e487b7160e01b600052603260045260246000fd5b60209081029190910181015161ffff168252818101929092526040016000208251815493909201516001600160401b03908116600160401b0267ffffffffffffffff60401b199190931667ffffffffffffffff19909416939093179290921617905580610ff3816142e7565b915050610f33565b601f82600c8110610e3157600080fd5b336000908152602f6020526040812054829060ff1680611049575060008181526012602052604090205443600160401b9091046001600160401b0316105b6110655760405162461bcd60e51b815260040161081d90613ff2565b50506000908152600f602090815260409182902082516101a081018452905460ff80821615158084526101008084048316958501959095526201000083048216958401959095526301000000820481166060840152640100000000820481166080840152650100000000008204811660a084015266010000000000008204811660c0840152600160381b8204811660e0840152600160401b8204811693830193909352600160481b81048316610120830152600160501b81048316610140830152600160581b81048316610160830152600160601b90049091166101809091015290565b61115c600a54600160a01b900460ff1690565b156111795760405162461bcd60e51b815260040161081d9061401d565b336000908152602f602052604090205460ff166111a85760405162461bcd60e51b815260040161081d90613fbb565b600b54600e546111bd9061ffff16600161420f565b61ffff1611156112035760405162461bcd60e51b8152602060048201526011602482015270105b1b081d1bdad95b9cc81b5a5b9d1959607a1b604482015260640161081d565b600e805461ffff16906000611217836142c5565b82546101009290920a61ffff818102199093169183160217909155600e54326000908152601160209081526040918290208251808401909352546001600160401b038082168452600160401b909104169082015261127a93509116908390612948565b50326001600160a01b038316148015906112a25750602b546001600160a01b03838116911614155b80156112b757506001600160a01b0382163014155b1561134657600e5461ffff166000908152600f602052604090205460ff161561131257600e5460405161ffff909116907fcf32c81b2c202b1b54ee14fa8a20c4707725e3d03d581a6e513a29d6cf4c511a90600090a2611346565b600e5460405161ffff909116907f6ea12d397b099d5fc983cd4d42866130c2134d023c87255a52c150c328c20e2090600090a25b600e5461135890839061ffff16612c91565b5050565b336000908152602f6020526040902054819060ff168061139a575060008181526012602052604090205443600160401b9091046001600160401b0316105b6113b65760405162461bcd60e51b815260040161081d90613ff2565b610a51848484612cab565b6113d4600a54600160a01b900460ff1690565b156113f15760405162461bcd60e51b815260040161081d9061401d565b336000908152602f602052604090205460ff166114205760405162461bcd60e51b815260040161081d90613fbb565b3261142a82611a57565b6001600160a01b0316146114805760405162461bcd60e51b815260206004820152601760248201527f4f6f707320796f7520646f6e2774206f776e2074686174000000000000000000604482015260640161081d565b6000818152600f602052604090205460ff16156114c75760405181907f86f8109fc1014c667ee2be6fb0b2b1d54dc3677ab2235dd38d9ea7d6419ff73890600090a26114f3565b60405181907f53a25ae4217fbc3bc27383ae359a946f20812eb9b2cb7c25142d40c433acb65890600090a25b61096081612cc6565b600a546001600160a01b031633146115265760405162461bcd60e51b815260040161081d90614047565b611539600a54600160a01b900460ff1690565b156115565760405162461bcd60e51b815260040161081d9061401d565b600e5462010000900460ff166115c95760405162461bcd60e51b815260206004820152603260248201527f41697264726f70206d696e74696e67206973206f6e6c7920617661696c61626c6044820152716520696e2061697264726f7020737461676560701b606482015260840161081d565b600e54600c5461ffff909116106116225760405162461bcd60e51b815260206004820152601960248201527f41697264726f70206d696e74696e6720636f6d706c6574656400000000000000604482015260640161081d565b602d546001600160a01b031661167a5760405162461bcd60e51b815260206004820152601d60248201527f72616e646f6d20736565642067656e657261746f72206973206e756c6c000000604482015260640161081d565b600d54600e5461168f90829061ffff16614235565b600c5410156116af57600e54600c546116ac9161ffff169061424d565b90505b60005b8181101561135857602d5460408051635ec01e4d60e01b815290516000926001600160a01b031691635ec01e4d91600480830192602092919082900301818787803b15801561170057600080fd5b505af1158015611714573d6000803e3d6000fd5b505050506040513d601f19601f820116820180604052508101906117389190613de6565b600e546040805160208082019490945261ffff9092168282015280518083038201815260609092019052805191012090506117733082611149565b508061177e816142e7565b9150506116b2565b611799600a54600160a01b900460ff1690565b156117b65760405162461bcd60e51b815260040161081d9061401d565b602e546040516370a0823160e01b81523360048201526000916001600160a01b0316906370a082319060240160206040518083038186803b1580156117fa57600080fd5b505afa15801561180e573d6000803e3d6000fd5b505050506040513d601f19601f820116820180604052508101906118329190613de6565b905060005b8181101561135857602e54604051632f745c5960e01b8152336004820152602481018390526000916001600160a01b031690632f745c599060440160206040518083038186803b15801561188a57600080fd5b505afa15801561189e573d6000803e3d6000fd5b505050506040513d601f19601f820116820180604052508101906118c29190613de6565b6040516331a9108f60e11b81526004810182905290915030908190636352211e9060240160206040518083038186803b1580156118fe57600080fd5b505afa158015611912573d6000803e3d6000fd5b505050506040513d601f19601f8201168201806040525081019061193691906139d6565b6001600160a01b03161461197e5760405162461bcd60e51b815260206004820152600f60248201526e125b9d985b1a59081d1bdad95b9259608a1b604482015260640161081d565b604051632142170760e11b8152306004820181905233602483015260448201839052906342842e0e90606401600060405180830381600087803b1580156119c457600080fd5b505af11580156119d8573d6000803e3d6000fd5b505050505080806119e8906142e7565b915050611837565b6000806119fc83612d6d565b336000908152602f602052604090205490915060ff1680611a3b575060008181526012602052604090205443600160401b9091046001600160401b0316105b6107295760405162461bcd60e51b815260040161081d90613ff2565b336000908152602f602052604081205460ff1680611a9457503260009081526011602052604090205443600160401b9091046001600160401b0316105b611ab05760405162461bcd60e51b815260040161081d90613ff2565b336000908152602f6020526040902054829060ff1680611aee575060008181526012602052604090205443600160401b9091046001600160401b0316105b611b0a5760405162461bcd60e51b815260040161081d90613ff2565b6000611b1584612e0e565b336000908152602f602052604090205490915060ff1680611b5e57506001600160a01b03811660009081526011602052604090205443600160401b9091046001600160401b0316105b61082f5760405162461bcd60e51b815260040161081d90613ff2565b600a546001600160a01b03163314611ba45760405162461bcd60e51b815260040161081d90614047565b6001600160a01b03166000908152602f60205260409020805460ff19166001179055565b336000908152602f602052604081205460ff1680611c0557503260009081526011602052604090205443600160401b9091046001600160401b0316105b611c215760405162461bcd60e51b815260040161081d90613ff2565b336000908152602f602052604090205460ff1680611c6757506001600160a01b03821660009081526011602052604090205443600160401b9091046001600160401b0316105b611c835760405162461bcd60e51b815260040161081d90613ff2565b61072982612e85565b600a546001600160a01b03163314611cb65760405162461bcd60e51b815260040161081d90614047565b611cc06000612f0c565b565b600a546001600160a01b03163314611cec5760405162461bcd60e51b815260040161081d90614047565b600e8054911515620100000262ff000019909216919091179055565b611d1061393e565b336000908152602f602052604090205460ff1680611d4d57503260009081526011602052604090205443600160401b9091046001600160401b0316105b611d695760405162461bcd60e51b815260040161081d90613ff2565b336000908152602f6020526040902054829060ff1680611da7575060008181526012602052604090205443600160401b9091046001600160401b0316105b611dc35760405162461bcd60e51b815260040161081d90613ff2565b50506000908152600f602090815260409182902082516101a081018452905460ff808216151583526101008083048216948401949094526201000082048116948301949094526301000000810484166060830152640100000000810484166080830152650100000000008104841660a083015266010000000000008104841660c0830152600160381b8104841660e0830152600160401b8104841692820192909252600160481b82048316610120820152600160501b82048316610140820152600160581b82048316610160820152600160601b90910490911661018082015290565b60606001805461074090614290565b336000908152602f602052604090205460ff1680611ef257503260009081526011602052604090205443600160401b9091046001600160401b0316105b611f0e5760405162461bcd60e51b815260040161081d90613ff2565b6113588282612f5e565b600a546001600160a01b03163314611f425760405162461bcd60e51b815260040161081d90614047565b602c80546001600160a01b039485166001600160a01b031991821617909155602b805493851693821693909317909255602d8054919093169116179055565b336000908152602f6020526040902054829060ff1680611fbf575060008181526012602052604090205443600160401b9091046001600160401b0316105b611fdb5760405162461bcd60e51b815260040161081d90613ff2565b611fe785858585612f69565b5050505050565b336000908152602f602052604090205460609060ff168061202e57503260009081526011602052604090205443600160401b9091046001600160401b0316105b61204a5760405162461bcd60e51b815260040161081d90613ff2565b336000908152602f6020526040902054829060ff1680612088575060008181526012602052604090205443600160401b9091046001600160401b0316105b6120a45760405162461bcd60e51b815260040161081d90613ff2565b6000838152600260205260409020546001600160a01b03166121085760405162461bcd60e51b815260206004820152601760248201527f546f6b656e20494420646f6573206e6f74206578697374000000000000000000604482015260640161081d565b602c5460405163c87b56dd60e01b8152600481018590526001600160a01b039091169063c87b56dd9060240160006040518083038186803b15801561214c57600080fd5b505afa158015612160573d6000803e3d6000fd5b505050506040513d6000823e601f3d908101601f1916820160405261082f9190810190613d5c565b336000908152602f602052604081205460ff16806121c557503260009081526011602052604090205443600160401b9091046001600160401b0316105b6121e15760405162461bcd60e51b815260040161081d90613ff2565b6001600160a01b0380841660009081526005602090815260408083209386168352929052205460ff16610b79565b336000908152602f602052604081205460ff1661223e5760405162461bcd60e51b815260040161081d90613fbb565b50600090815260126020526040902054600160401b90046001600160401b031690565b600a546001600160a01b0316331461228b5760405162461bcd60e51b815260040161081d90614047565b6001600160a01b0381166122f05760405162461bcd60e51b815260206004820152602660248201527f4f776e61626c653a206e6577206f776e657220697320746865207a65726f206160448201526564647265737360d01b606482015260840161081d565b61096081612f0c565b600a546001600160a01b031633146123235760405162461bcd60e51b815260040161081d90614047565b600d55565b60006001600160e01b031982166380ac58cd60e01b148061235957506001600160e01b03198216635b5e139f60e01b145b8061072957506301ffc9a760e01b6001600160e01b0319831614610729565b6000818152600260205260408120546001600160a01b03166123f15760405162461bcd60e51b815260206004820152602c60248201527f4552433732313a20617070726f76656420717565727920666f72206e6f6e657860448201526b34b9ba32b73a103a37b5b2b760a11b606482015260840161081d565b506000908152600460205260409020546001600160a01b031690565b600061241882612e0e565b9050806001600160a01b0316836001600160a01b031614156124865760405162461bcd60e51b815260206004820152602160248201527f4552433732313a20617070726f76616c20746f2063757272656e74206f776e656044820152603960f91b606482015260840161081d565b336001600160a01b03821614806124a257506124a281336106ae565b6125145760405162461bcd60e51b815260206004820152603860248201527f4552433732313a20617070726f76652063616c6c6572206973206e6f74206f7760448201527f6e6572206e6f7220617070726f76656420666f7220616c6c0000000000000000606482015260840161081d565b61089c8383612f9a565b612531600a54600160a01b900460ff1690565b1561254e5760405162461bcd60e51b815260040161081d9061401d565b600a805460ff60a01b1916600160a01b1790557f62e78cea01bee320cd4e420270b5ea74000d11b0c9f74754ebdbfc544b05a2586125893390565b6040516001600160a01b03909116815260200160405180910390a1565b6125b9600a54600160a01b900460ff1690565b6125fc5760405162461bcd60e51b815260206004820152601460248201527314185d5cd8589b194e881b9bdd081c185d5cd95960621b604482015260640161081d565b600a805460ff60a01b191690557f5db9ee0a495bf2e6ff9c91a7834c1ba4fdd244a5e8aa4e537bd38aeae4b073aa33612589565b6000818152600260205260408120546001600160a01b03166126a95760405162461bcd60e51b815260206004820152602c60248201527f4552433732313a206f70657261746f7220717565727920666f72206e6f6e657860448201526b34b9ba32b73a103a37b5b2b760a11b606482015260840161081d565b60006126b483612e0e565b9050806001600160a01b0316846001600160a01b031614806126ef5750836001600160a01b03166126e4846107c3565b6001600160a01b0316145b806126ff57506126ff8185612188565b949350505050565b826001600160a01b031661271a82612e0e565b6001600160a01b0316146127825760405162461bcd60e51b815260206004820152602960248201527f4552433732313a207472616e73666572206f6620746f6b656e2074686174206960448201526839903737ba1037bbb760b91b606482015260840161081d565b6001600160a01b0382166127e45760405162461bcd60e51b8152602060048201526024808201527f4552433732313a207472616e7366657220746f20746865207a65726f206164646044820152637265737360e01b606482015260840161081d565b6127ef838383613008565b6127fa600082612f9a565b6001600160a01b038316600090815260036020526040812080546001929061282390849061424d565b90915550506001600160a01b0382166000908152600360205260408120805460019290612851908490614235565b909155505060008181526002602052604080822080546001600160a01b0319166001600160a01b0386811691821790925591518493918716917fddf252ad1be2c89b69c2b068fc378daa952ba7f163c4a11628f55a4df523b3ef91a4505050565b60006128bd83612e85565b821061291f5760405162461bcd60e51b815260206004820152602b60248201527f455243373231456e756d657261626c653a206f776e657220696e646578206f7560448201526a74206f6620626f756e647360a81b606482015260840161081d565b506001600160a01b03919091166000908152600660209081526040808320938352929052205490565b61295061393e565b612959836130c5565b9050601060006129688361325c565b81526020019081526020016000205460001415612bce5780600f600086815260200190815260200160002060008201518160000160006101000a81548160ff02191690831515021790555060208201518160000160016101000a81548160ff021916908360ff16021790555060408201518160000160026101000a81548160ff021916908360ff16021790555060608201518160000160036101000a81548160ff021916908360ff16021790555060808201518160000160046101000a81548160ff021916908360ff16021790555060a08201518160000160056101000a81548160ff021916908360ff16021790555060c08201518160000160066101000a81548160ff021916908360ff16021790555060e08201518160000160076101000a81548160ff021916908360ff1602179055506101008201518160000160086101000a81548160ff021916908360ff1602179055506101208201518160000160096101000a81548160ff021916908360ff16021790555061014082015181600001600a6101000a81548160ff021916908360ff16021790555061016082015181600001600b6101000a81548160ff021916908360ff16021790555061018082015181600001600c6101000a81548160ff021916908360ff1602179055509050508360106000612b558461325c565b8152602081019190915260400160002055805115612b9d5760405184907fe0fa44a304932c545206473a933ecea615b522baa4188ca656811fa23eeebefc90600090a2612bc9565b60405184907f3fd269bac8ce5679c129fb62f42855a1e0d2cdeab71acb5cc81000726bb36bc990600090a25b612c8a565b602d5460408051635ec01e4d60e01b815290516000926001600160a01b031691635ec01e4d91600480830192602092919082900301818787803b158015612c1457600080fd5b505af1158015612c28573d6000803e3d6000fd5b505050506040513d601f19601f82011682018060405250810190612c4c9190613de6565b60408051602081019290925281018590526060016040516020818303038152906040528051906020012060001c9050612c86858285612948565b9150505b9392505050565b6113588282604051806020016040528060008152506132d2565b61089c83838360405180602001604052806000815250611f81565b6000612cd182612e0e565b9050612cdf81600084613008565b612cea600083612f9a565b6001600160a01b0381166000908152600360205260408120805460019290612d1390849061424d565b909155505060008281526002602052604080822080546001600160a01b0319169055518391906001600160a01b038416907fddf252ad1be2c89b69c2b068fc378daa952ba7f163c4a11628f55a4df523b3ef908390a45050565b6000612d7860085490565b8210612ddb5760405162461bcd60e51b815260206004820152602c60248201527f455243373231456e756d657261626c653a20676c6f62616c20696e646578206f60448201526b7574206f6620626f756e647360a01b606482015260840161081d565b60088281548110612dfc57634e487b7160e01b600052603260045260246000fd5b90600052602060002001549050919050565b6000818152600260205260408120546001600160a01b0316806107295760405162461bcd60e51b815260206004820152602960248201527f4552433732313a206f776e657220717565727920666f72206e6f6e657869737460448201526832b73a103a37b5b2b760b91b606482015260840161081d565b60006001600160a01b038216612ef05760405162461bcd60e51b815260206004820152602a60248201527f4552433732313a2062616c616e636520717565727920666f7220746865207a65604482015269726f206164647265737360b01b606482015260840161081d565b506001600160a01b031660009081526003602052604090205490565b600a80546001600160a01b038381166001600160a01b0319831681179093556040519116919082907f8be0079c531659141344cd1fd0a4f28419497f9722a3daafe3b4186f6b6457e090600090a35050565b611358338383613305565b612f7233610a24565b612f8e5760405162461bcd60e51b815260040161081d9061407c565b610a51848484846133d4565b600081815260046020526040902080546001600160a01b0319166001600160a01b0384169081179091558190612fcf82612e0e565b6001600160a01b03167f8c5be1e5ebec7d5bd14f71427d1e84f3dd0314c0f7b2291e5b200ac8c7c3b92560405160405180910390a45050565b6001600160a01b0383166130635761305e81600880546000838152600960205260408120829055600182018355919091527ff3f7a9fe364faab93b216da50a3214154f22a0a2b415b23a84c8169e8b636ee30155565b613086565b816001600160a01b0316836001600160a01b031614613086576130868382613407565b6001600160a01b0382166130a25761309d816134a4565b61089c565b826001600160a01b0316826001600160a01b03161461089c5761089c828261357d565b6130cd61393e565b6130dc600a61ffff8416614302565b158015825261319e57601082901c91506130fb8261ffff1660006135c1565b60ff16602082015260109190911c9061311961ffff831660016135c1565b60ff16604082015260109190911c9061313761ffff831660026135c1565b60ff16606082015260109190911c9061315561ffff831660036135c1565b60ff16608082015260109190911c9061317361ffff831660046135c1565b60ff1660a082015260109190911c9061319161ffff831660056135c1565b60ff1660c082015261072c565b601082901c91506131b48261ffff1660066135c1565b60ff1660e082015260109190911c906131d261ffff831660076135c1565b60ff1661010082015260109190911c906131f161ffff831660086135c1565b60ff1661012082015260109190911c9061321061ffff831660096135c1565b60ff1661014082015260109190911c9061322f61ffff8316600a6135c1565b60ff1661016082015260109190911c9061324e61ffff8316600b6135c1565b60ff16610180820152919050565b80516020808301516040808501516060860151608087015160a088015160c089015160e08a01516101008b01516101208c01516101408d01516101608e01516101808f01519a5160009e6132b49e909d9c9101613e5c565b60408051601f19818403018152919052805160209091012092915050565b6132dc83836136e3565b6132e96000848484613831565b61089c5760405162461bcd60e51b815260040161081d90613f69565b816001600160a01b0316836001600160a01b031614156133675760405162461bcd60e51b815260206004820152601960248201527f4552433732313a20617070726f766520746f2063616c6c657200000000000000604482015260640161081d565b6001600160a01b03838116600081815260056020908152604080832094871680845294825291829020805460ff191686151590811790915591519182527f17307eab39ab6107e8899845ad3d59bd9653f200f220920489ca2b5937696c31910160405180910390a3505050565b6133df848484612707565b6133eb84848484613831565b610a515760405162461bcd60e51b815260040161081d90613f69565b6000600161341484612e85565b61341e919061424d565b600083815260076020526040902054909150808214613471576001600160a01b03841660009081526006602090815260408083208584528252808320548484528184208190558352600790915290208190555b5060009182526007602090815260408084208490556001600160a01b039094168352600681528383209183525290812055565b6008546000906134b69060019061424d565b600083815260096020526040812054600880549394509092849081106134ec57634e487b7160e01b600052603260045260246000fd5b90600052602060002001549050806008838154811061351b57634e487b7160e01b600052603260045260246000fd5b600091825260208083209091019290925582815260099091526040808220849055858252812055600880548061356157634e487b7160e01b600052603160045260246000fd5b6001900381819060005260206000200160009055905550505050565b600061358883612e85565b6001600160a01b039093166000908152600660209081526040808320868452825280832085905593825260079052919091209190915550565b60008060138360ff16600c81106135e857634e487b7160e01b600052603260045260246000fd5b01546135f49085614316565b905060138360ff16600c811061361a57634e487b7160e01b600052603260045260246000fd5b018160ff168154811061363d57634e487b7160e01b600052603260045260246000fd5b60009182526020918290209181049091015460ff601f9092166101000a90048116600886901c9091161015613673579050610b7c565b601f8360ff16600c811061369757634e487b7160e01b600052603260045260246000fd5b018160ff16815481106136ba57634e487b7160e01b600052603260045260246000fd5b90600052602060002090602091828204019190069054906101000a900460ff1691505092915050565b6001600160a01b0382166137395760405162461bcd60e51b815260206004820181905260248201527f4552433732313a206d696e7420746f20746865207a65726f2061646472657373604482015260640161081d565b6000818152600260205260409020546001600160a01b03161561379e5760405162461bcd60e51b815260206004820152601c60248201527f4552433732313a20746f6b656e20616c7265616479206d696e74656400000000604482015260640161081d565b6137aa60008383613008565b6001600160a01b03821660009081526003602052604081208054600192906137d3908490614235565b909155505060008181526002602052604080822080546001600160a01b0319166001600160a01b03861690811790915590518392907fddf252ad1be2c89b69c2b068fc378daa952ba7f163c4a11628f55a4df523b3ef908290a45050565b60006001600160a01b0384163b1561393357604051630a85bd0160e11b81526001600160a01b0385169063150b7a0290613875903390899088908890600401613f19565b602060405180830381600087803b15801561388f57600080fd5b505af19250505080156138bf575060408051601f3d908101601f191682019092526138bc91810190613d40565b60015b613919573d8080156138ed576040519150601f19603f3d011682016040523d82523d6000602084013e6138f2565b606091505b5080516139115760405162461bcd60e51b815260040161081d90613f69565b805181602001fd5b6001600160e01b031916630a85bd0160e11b1490506126ff565b506001949350505050565b604080516101a081018252600080825260208201819052918101829052606081018290526080810182905260a0810182905260c0810182905260e08101829052610100810182905261012081018290526101408101829052610160810182905261018081019190915290565b8035801515811461072c57600080fd5b6000602082840312156139cb578081fd5b8135610b798161437a565b6000602082840312156139e7578081fd5b8151610b798161437a565b60008060408385031215613a04578081fd5b8235613a0f8161437a565b91506020830135613a1f8161437a565b809150509250929050565b600080600060608486031215613a3e578081fd5b8335613a498161437a565b92506020840135613a598161437a565b91506040840135613a698161437a565b809150509250925092565b600080600060608486031215613a88578283fd5b8335613a938161437a565b92506020840135613aa38161437a565b929592945050506040919091013590565b600080600080600060808688031215613acb578081fd5b8535613ad68161437a565b94506020860135613ae68161437a565b93506040860135925060608601356001600160401b0380821115613b08578283fd5b818801915088601f830112613b1b578283fd5b813581811115613b29578384fd5b896020828501011115613b3a578384fd5b9699959850939650602001949392505050565b60008060008060808587031215613b62578384fd5b8435613b6d8161437a565b93506020850135613b7d8161437a565b92506040850135915060608501356001600160401b03811115613b9e578182fd5b8501601f81018713613bae578182fd5b8035613bc1613bbc826141e8565b6141b8565b818152886020838501011115613bd5578384fd5b81602084016020830137908101602001929092525092959194509250565b60008060408385031215613c05578182fd5b8235613c108161437a565b9150613c1e602084016139aa565b90509250929050565b60008060408385031215613c39578182fd5b8235613c448161437a565b946020939093013593505050565b60006020808385031215613c64578182fd5b82356001600160401b0380821115613c7a578384fd5b818501915085601f830112613c8d578384fd5b813581811115613c9f57613c9f614364565b8381029150613caf8483016141b8565b8181528481019084860184860187018a1015613cc9578788fd5b8795505b83861015613cfd578035945061ffff85168514613ce8578788fd5b84835260019590950194918601918601613ccd565b5098975050505050505050565b600060208284031215613d1b578081fd5b610b79826139aa565b600060208284031215613d35578081fd5b8135610b798161438f565b600060208284031215613d51578081fd5b8151610b798161438f565b600060208284031215613d6d578081fd5b81516001600160401b03811115613d82578182fd5b8201601f81018413613d92578182fd5b8051613da0613bbc826141e8565b818152856020838501011115613db4578384fd5b613dc5826020830160208601614264565b95945050505050565b600060208284031215613ddf578081fd5b5035919050565b600060208284031215613df7578081fd5b5051919050565b60008060408385031215613e10578182fd5b50508035926020909101359150565b60008151808452613e37816020860160208601614264565b601f01601f19169290920160200192915050565b60f81b6001600160f81b0319169052565b60008e151560f81b825260ff60f81b8e60f81b166001830152613e82600283018e613e4b565b613e8f600383018d613e4b565b613e9c600483018c613e4b565b613ea9600583018b613e4b565b613eb6600683018a613e4b565b613ec36007830189613e4b565b613ed06008830188613e4b565b613edd6009830187613e4b565b613eea600a830186613e4b565b613ef7600b830185613e4b565b613f04600c830184613e4b565b50600d019d9c50505050505050505050505050565b6001600160a01b0385811682528416602082015260408101839052608060608201819052600090613f4c90830184613e1f565b9695505050505050565b600060208252610b796020830184613e1f565b60208082526032908201527f4552433732313a207472616e7366657220746f206e6f6e20455243373231526560408201527131b2b4bb32b91034b6b83632b6b2b73a32b960711b606082015260800190565b60208082526019908201527f4f6e6c792061646d696e732063616e2063616c6c207468697300000000000000604082015260600190565b602080825260119082015270686d6d6d6d207768617420646f696e673f60781b604082015260600190565b60208082526010908201526f14185d5cd8589b194e881c185d5cd95960821b604082015260600190565b6020808252818101527f4f776e61626c653a2063616c6c6572206973206e6f7420746865206f776e6572604082015260600190565b60208082526031908201527f4552433732313a207472616e736665722063616c6c6572206973206e6f74206f6040820152701ddb995c881b9bdc88185c1c1c9bdd9959607a1b606082015260800190565b8151151581526101a0810160208301516140ec602084018260ff169052565b506040830151614101604084018260ff169052565b506060830151614116606084018260ff169052565b50608083015161412b608084018260ff169052565b5060a083015161414060a084018260ff169052565b5060c083015161415560c084018260ff169052565b5060e083015161416a60e084018260ff169052565b506101008381015160ff908116918401919091526101208085015182169084015261014080850151821690840152610160808501518216908401526101809384015116929091019190915290565b604051601f8201601f191681016001600160401b03811182821017156141e0576141e0614364565b604052919050565b60006001600160401b0382111561420157614201614364565b50601f01601f191660200190565b600061ffff80831681851680830382111561422c5761422c614338565b01949350505050565b6000821982111561424857614248614338565b500190565b60008282101561425f5761425f614338565b500390565b60005b8381101561427f578181015183820152602001614267565b83811115610a515750506000910152565b6002810460018216806142a457607f821691505b6020821081141561083257634e487b7160e01b600052602260045260246000fd5b600061ffff808316818114156142dd576142dd614338565b6001019392505050565b60006000198214156142fb576142fb614338565b5060010190565b6000826143115761431161434e565b500690565b600060ff8316806143295761432961434e565b8060ff84160691505092915050565b634e487b7160e01b600052601160045260246000fd5b634e487b7160e01b600052601260045260246000fd5b634e487b7160e01b600052604160045260246000fd5b6001600160a01b038116811461096057600080fd5b6001600160e01b03198116811461096057600080fdfea2646970667358221220d09efbebbcfcf3c2272b2e4058569db64dea4e4a698b90576e0a269efdda331d64736f6c63430008020033",
  "devdoc": {
    "kind": "dev",
    "methods": {
      "addAdmin(address)": {
        "params": {
          "addr": "the address to enable"
        }
      },
      "isMarine(uint256)": {
        "params": {
          "tokenId": "the ID of the token to check"
        },
        "returns": {
          "_0": "marine - whether or not a token is a Marines"
        }
      },
      "name()": {
        "details": "See {IERC721Metadata-name}."
      },
      "owner()": {
        "details": "Returns the address of the current owner."
      },
      "paused()": {
        "details": "Returns true if the contract is paused, and false otherwise."
      },
      "removeAdmin(address)": {
        "params": {
          "addr": "the address to disbale"
        }
      },
      "renounceOwnership()": {
        "details": "Leaves the contract without owner. It will not be possible to call `onlyOwner` functions anymore. Can only be called by the current owner. NOTE: Renouncing ownership will leave the contract without an owner, thereby removing any functionality that is only available to the owner."
      },
      "supportsInterface(bytes4)": {
        "details": "See {IERC165-supportsInterface}."
      },
      "symbol()": {
        "details": "See {IERC721Metadata-symbol}."
      },
      "tokenURI(uint256)": {
        "details": "See {IERC721Metadata-tokenURI}."
      },
      "totalSupply()": {
        "details": "See {IERC721Enumerable-totalSupply}."
      },
      "transferOwnership(address)": {
        "details": "Transfers ownership of the contract to a new account (`newOwner`). Can only be called by the current owner."
      }
    },
    "version": 1
  },
  "userdoc": {
    "kind": "user",
    "methods": {
      "addAdmin(address)": {
        "notice": "enables an address to mint / burn"
      },
      "burn(uint256)": {
        "notice": "Burn a token - any game logic should be handled before this function."
      },
      "isMarine(uint256)": {
        "notice": "checks if a token is a Marines"
      },
      "mint(address,uint256)": {
        "notice": "Mint a token - any payment / game logic should be handled in the game contract.  This will just generate random traits and mint a token to a designated address."
      },
      "removeAdmin(address)": {
        "notice": "disables an address from minting / burning"
      },
      "setAirdropMintingCount(uint256)": {
        "notice": "set the number of tokens to mint at a time for airdrop."
      },
      "setAirdropStage(bool)": {
        "notice": "start or end airdrop stage"
      },
      "setPaidTokens(uint256)": {
        "notice": "updates the number of tokens for sale"
      },
      "setPaused(bool)": {
        "notice": "enables owner to pause / unpause minting"
      }
    },
    "version": 1
  },
  "storageLayout": {
    "storage": [
      {
        "astId": 2640,
        "contract": "contracts/MnA.sol:MnA",
        "label": "_name",
        "offset": 0,
        "slot": "0",
        "type": "t_string_storage"
      },
      {
        "astId": 2642,
        "contract": "contracts/MnA.sol:MnA",
        "label": "_symbol",
        "offset": 0,
        "slot": "1",
        "type": "t_string_storage"
      },
      {
        "astId": 2646,
        "contract": "contracts/MnA.sol:MnA",
        "label": "_owners",
        "offset": 0,
        "slot": "2",
        "type": "t_mapping(t_uint256,t_address)"
      },
      {
        "astId": 2650,
        "contract": "contracts/MnA.sol:MnA",
        "label": "_balances",
        "offset": 0,
        "slot": "3",
        "type": "t_mapping(t_address,t_uint256)"
      },
      {
        "astId": 2654,
        "contract": "contracts/MnA.sol:MnA",
        "label": "_tokenApprovals",
        "offset": 0,
        "slot": "4",
        "type": "t_mapping(t_uint256,t_address)"
      },
      {
        "astId": 2660,
        "contract": "contracts/MnA.sol:MnA",
        "label": "_operatorApprovals",
        "offset": 0,
        "slot": "5",
        "type": "t_mapping(t_address,t_mapping(t_address,t_bool))"
      },
      {
        "astId": 3594,
        "contract": "contracts/MnA.sol:MnA",
        "label": "_ownedTokens",
        "offset": 0,
        "slot": "6",
        "type": "t_mapping(t_address,t_mapping(t_uint256,t_uint256))"
      },
      {
        "astId": 3598,
        "contract": "contracts/MnA.sol:MnA",
        "label": "_ownedTokensIndex",
        "offset": 0,
        "slot": "7",
        "type": "t_mapping(t_uint256,t_uint256)"
      },
      {
        "astId": 3601,
        "contract": "contracts/MnA.sol:MnA",
        "label": "_allTokens",
        "offset": 0,
        "slot": "8",
        "type": "t_array(t_uint256)dyn_storage"
      },
      {
        "astId": 3605,
        "contract": "contracts/MnA.sol:MnA",
        "label": "_allTokensIndex",
        "offset": 0,
        "slot": "9",
        "type": "t_mapping(t_uint256,t_uint256)"
      },
      {
        "astId": 1512,
        "contract": "contracts/MnA.sol:MnA",
        "label": "_owner",
        "offset": 0,
        "slot": "10",
        "type": "t_address"
      },
      {
        "astId": 1627,
        "contract": "contracts/MnA.sol:MnA",
        "label": "_paused",
        "offset": 20,
        "slot": "10",
        "type": "t_bool"
      },
      {
        "astId": 5488,
        "contract": "contracts/MnA.sol:MnA",
        "label": "maxTokens",
        "offset": 0,
        "slot": "11",
        "type": "t_uint256"
      },
      {
        "astId": 5491,
        "contract": "contracts/MnA.sol:MnA",
        "label": "PAID_TOKENS",
        "offset": 0,
        "slot": "12",
        "type": "t_uint256"
      },
      {
        "astId": 5494,
        "contract": "contracts/MnA.sol:MnA",
        "label": "airdropMintingCount",
        "offset": 0,
        "slot": "13",
        "type": "t_uint256"
      },
      {
        "astId": 5497,
        "contract": "contracts/MnA.sol:MnA",
        "label": "minted",
        "offset": 0,
        "slot": "14",
        "type": "t_uint16"
      },
      {
        "astId": 5499,
        "contract": "contracts/MnA.sol:MnA",
        "label": "isAirdropStage",
        "offset": 2,
        "slot": "14",
        "type": "t_bool"
      },
      {
        "astId": 5504,
        "contract": "contracts/MnA.sol:MnA",
        "label": "tokenTraits",
        "offset": 0,
        "slot": "15",
        "type": "t_mapping(t_uint256,t_struct(MarineAlien)11611_storage)"
      },
      {
        "astId": 5508,
        "contract": "contracts/MnA.sol:MnA",
        "label": "existingCombinations",
        "offset": 0,
        "slot": "16",
        "type": "t_mapping(t_uint256,t_uint256)"
      },
      {
        "astId": 5513,
        "contract": "contracts/MnA.sol:MnA",
        "label": "lastWriteAddress",
        "offset": 0,
        "slot": "17",
        "type": "t_mapping(t_address,t_struct(LastWrite)5461_storage)"
      },
      {
        "astId": 5518,
        "contract": "contracts/MnA.sol:MnA",
        "label": "lastWriteToken",
        "offset": 0,
        "slot": "18",
        "type": "t_mapping(t_uint256,t_struct(LastWrite)5461_storage)"
      },
      {
        "astId": 5523,
        "contract": "contracts/MnA.sol:MnA",
        "label": "rarities",
        "offset": 0,
        "slot": "19",
        "type": "t_array(t_array(t_uint8)dyn_storage)12_storage"
      },
      {
        "astId": 5528,
        "contract": "contracts/MnA.sol:MnA",
        "label": "aliases",
        "offset": 0,
        "slot": "31",
        "type": "t_array(t_array(t_uint8)dyn_storage)12_storage"
      },
      {
        "astId": 5531,
        "contract": "contracts/MnA.sol:MnA",
        "label": "stakingPool",
        "offset": 0,
        "slot": "43",
        "type": "t_contract(IStakingPool)11742"
      },
      {
        "astId": 5534,
        "contract": "contracts/MnA.sol:MnA",
        "label": "traits",
        "offset": 0,
        "slot": "44",
        "type": "t_contract(ITraits)11752"
      },
      {
        "astId": 5537,
        "contract": "contracts/MnA.sol:MnA",
        "label": "randomSeedGenerator",
        "offset": 0,
        "slot": "45",
        "type": "t_contract(IRandomSeedGenerator)11709"
      },
      {
        "astId": 5540,
        "contract": "contracts/MnA.sol:MnA",
        "label": "founderPass",
        "offset": 0,
        "slot": "46",
        "type": "t_contract(IFounderPass)11579"
      },
      {
        "astId": 5544,
        "contract": "contracts/MnA.sol:MnA",
        "label": "admins",
        "offset": 0,
        "slot": "47",
        "type": "t_mapping(t_address,t_bool)"
      }
    ],
    "types": {
      "t_address": {
        "encoding": "inplace",
        "label": "address",
        "numberOfBytes": "20"
      },
      "t_array(t_array(t_uint8)dyn_storage)12_storage": {
        "base": "t_array(t_uint8)dyn_storage",
        "encoding": "inplace",
        "label": "uint8[][12]",
        "numberOfBytes": "384"
      },
      "t_array(t_uint256)dyn_storage": {
        "base": "t_uint256",
        "encoding": "dynamic_array",
        "label": "uint256[]",
        "numberOfBytes": "32"
      },
      "t_array(t_uint8)dyn_storage": {
        "base": "t_uint8",
        "encoding": "dynamic_array",
        "label": "uint8[]",
        "numberOfBytes": "32"
      },
      "t_bool": {
        "encoding": "inplace",
        "label": "bool",
        "numberOfBytes": "1"
      },
      "t_contract(IFounderPass)11579": {
        "encoding": "inplace",
        "label": "contract IFounderPass",
        "numberOfBytes": "20"
      },
      "t_contract(IRandomSeedGenerator)11709": {
        "encoding": "inplace",
        "label": "contract IRandomSeedGenerator",
        "numberOfBytes": "20"
      },
      "t_contract(IStakingPool)11742": {
        "encoding": "inplace",
        "label": "contract IStakingPool",
        "numberOfBytes": "20"
      },
      "t_contract(ITraits)11752": {
        "encoding": "inplace",
        "label": "contract ITraits",
        "numberOfBytes": "20"
      },
      "t_mapping(t_address,t_bool)": {
        "encoding": "mapping",
        "key": "t_address",
        "label": "mapping(address => bool)",
        "numberOfBytes": "32",
        "value": "t_bool"
      },
      "t_mapping(t_address,t_mapping(t_address,t_bool))": {
        "encoding": "mapping",
        "key": "t_address",
        "label": "mapping(address => mapping(address => bool))",
        "numberOfBytes": "32",
        "value": "t_mapping(t_address,t_bool)"
      },
      "t_mapping(t_address,t_mapping(t_uint256,t_uint256))": {
        "encoding": "mapping",
        "key": "t_address",
        "label": "mapping(address => mapping(uint256 => uint256))",
        "numberOfBytes": "32",
        "value": "t_mapping(t_uint256,t_uint256)"
      },
      "t_mapping(t_address,t_struct(LastWrite)5461_storage)": {
        "encoding": "mapping",
        "key": "t_address",
        "label": "mapping(address => struct MnA.LastWrite)",
        "numberOfBytes": "32",
        "value": "t_struct(LastWrite)5461_storage"
      },
      "t_mapping(t_address,t_uint256)": {
        "encoding": "mapping",
        "key": "t_address",
        "label": "mapping(address => uint256)",
        "numberOfBytes": "32",
        "value": "t_uint256"
      },
      "t_mapping(t_uint256,t_address)": {
        "encoding": "mapping",
        "key": "t_uint256",
        "label": "mapping(uint256 => address)",
        "numberOfBytes": "32",
        "value": "t_address"
      },
      "t_mapping(t_uint256,t_struct(LastWrite)5461_storage)": {
        "encoding": "mapping",
        "key": "t_uint256",
        "label": "mapping(uint256 => struct MnA.LastWrite)",
        "numberOfBytes": "32",
        "value": "t_struct(LastWrite)5461_storage"
      },
      "t_mapping(t_uint256,t_struct(MarineAlien)11611_storage)": {
        "encoding": "mapping",
        "key": "t_uint256",
        "label": "mapping(uint256 => struct IMnA.MarineAlien)",
        "numberOfBytes": "32",
        "value": "t_struct(MarineAlien)11611_storage"
      },
      "t_mapping(t_uint256,t_uint256)": {
        "encoding": "mapping",
        "key": "t_uint256",
        "label": "mapping(uint256 => uint256)",
        "numberOfBytes": "32",
        "value": "t_uint256"
      },
      "t_string_storage": {
        "encoding": "bytes",
        "label": "string",
        "numberOfBytes": "32"
      },
      "t_struct(LastWrite)5461_storage": {
        "encoding": "inplace",
        "label": "struct MnA.LastWrite",
        "members": [
          {
            "astId": 5458,
            "contract": "contracts/MnA.sol:MnA",
            "label": "time",
            "offset": 0,
            "slot": "0",
            "type": "t_uint64"
          },
          {
            "astId": 5460,
            "contract": "contracts/MnA.sol:MnA",
            "label": "blockNum",
            "offset": 8,
            "slot": "0",
            "type": "t_uint64"
          }
        ],
        "numberOfBytes": "32"
      },
      "t_struct(MarineAlien)11611_storage": {
        "encoding": "inplace",
        "label": "struct IMnA.MarineAlien",
        "members": [
          {
            "astId": 11586,
            "contract": "contracts/MnA.sol:MnA",
            "label": "isMarine",
            "offset": 0,
            "slot": "0",
            "type": "t_bool"
          },
          {
            "astId": 11588,
            "contract": "contracts/MnA.sol:MnA",
            "label": "M_Weapon",
            "offset": 1,
            "slot": "0",
            "type": "t_uint8"
          },
          {
            "astId": 11590,
            "contract": "contracts/MnA.sol:MnA",
            "label": "M_Back",
            "offset": 2,
            "slot": "0",
            "type": "t_uint8"
          },
          {
            "astId": 11592,
            "contract": "contracts/MnA.sol:MnA",
            "label": "M_Headgear",
            "offset": 3,
            "slot": "0",
            "type": "t_uint8"
          },
          {
            "astId": 11594,
            "contract": "contracts/MnA.sol:MnA",
            "label": "M_Eyes",
            "offset": 4,
            "slot": "0",
            "type": "t_uint8"
          },
          {
            "astId": 11596,
            "contract": "contracts/MnA.sol:MnA",
            "label": "M_Emblem",
            "offset": 5,
            "slot": "0",
            "type": "t_uint8"
          },
          {
            "astId": 11598,
            "contract": "contracts/MnA.sol:MnA",
            "label": "M_Body",
            "offset": 6,
            "slot": "0",
            "type": "t_uint8"
          },
          {
            "astId": 11600,
            "contract": "contracts/MnA.sol:MnA",
            "label": "A_Headgear",
            "offset": 7,
            "slot": "0",
            "type": "t_uint8"
          },
          {
            "astId": 11602,
            "contract": "contracts/MnA.sol:MnA",
            "label": "A_Eye",
            "offset": 8,
            "slot": "0",
            "type": "t_uint8"
          },
          {
            "astId": 11604,
            "contract": "contracts/MnA.sol:MnA",
            "label": "A_Back",
            "offset": 9,
            "slot": "0",
            "type": "t_uint8"
          },
          {
            "astId": 11606,
            "contract": "contracts/MnA.sol:MnA",
            "label": "A_Mouth",
            "offset": 10,
            "slot": "0",
            "type": "t_uint8"
          },
          {
            "astId": 11608,
            "contract": "contracts/MnA.sol:MnA",
            "label": "A_Body",
            "offset": 11,
            "slot": "0",
            "type": "t_uint8"
          },
          {
            "astId": 11610,
            "contract": "contracts/MnA.sol:MnA",
            "label": "rankIndex",
            "offset": 12,
            "slot": "0",
            "type": "t_uint8"
          }
        ],
        "numberOfBytes": "32"
      },
      "t_uint16": {
        "encoding": "inplace",
        "label": "uint16",
        "numberOfBytes": "2"
      },
      "t_uint256": {
        "encoding": "inplace",
        "label": "uint256",
        "numberOfBytes": "32"
      },
      "t_uint64": {
        "encoding": "inplace",
        "label": "uint64",
        "numberOfBytes": "8"
      },
      "t_uint8": {
        "encoding": "inplace",
        "label": "uint8",
        "numberOfBytes": "1"
      }
    }
  }
}