{
  "_format": "hh-sol-artifact-1",
  "contractName": "SpaceGameCalculator",
  "sourceName": "contracts/game/SpaceGameCalculator.sol",
  "abi": [
    {
      "inputs": [
        {
          "internalType": "address",
          "name": "_levelMath",
          "type": "address"
        },
        {
          "internalType": "address",
          "name": "_mna",
          "type": "address"
        },
        {
          "internalType": "address",
          "name": "_stakingPool",
          "type": "address"
        }
      ],
      "stateMutability": "nonpayable",
      "type": "constructor"
    },
    {
      "anonymous": false,
      "inputs": [
        {
          "indexed": true,
          "internalType": "address",
          "name": "previousOwner",
          "type": "address"
        },
        {
          "indexed": true,
          "internalType": "address",
          "name": "newOwner",
          "type": "address"
        }
      ],
      "name": "OwnershipTransferred",
      "type": "event"
    },
    {
      "inputs": [
        {
          "internalType": "uint256[]",
          "name": "levels",
          "type": "uint256[]"
        }
      ],
      "name": "getLevelData",
      "outputs": [
        {
          "components": [
            {
              "internalType": "uint256",
              "name": "oresToken",
              "type": "uint256"
            },
            {
              "internalType": "uint256",
              "name": "coolDownTime",
              "type": "uint256"
            },
            {
              "internalType": "uint256",
              "name": "klayeToSkip",
              "type": "uint256"
            },
            {
              "internalType": "uint256",
              "name": "klayePerDay",
              "type": "uint256"
            },
            {
              "internalType": "uint256",
              "name": "maxRewardDuration",
              "type": "uint256"
            }
          ],
          "internalType": "struct ILevelMath.LevelEpoch[]",
          "name": "levelData",
          "type": "tuple[]"
        }
      ],
      "stateMutability": "view",
      "type": "function"
    },
    {
      "inputs": [
        {
          "internalType": "uint256",
          "name": "token",
          "type": "uint256"
        }
      ],
      "name": "getLevelEndTimestamp",
      "outputs": [
        {
          "internalType": "uint256",
          "name": "remaining",
          "type": "uint256"
        }
      ],
      "stateMutability": "view",
      "type": "function"
    },
    {
      "inputs": [
        {
          "internalType": "uint256[]",
          "name": "tokenIds",
          "type": "uint256[]"
        }
      ],
      "name": "getMarinePoolData",
      "outputs": [
        {
          "components": [
            {
              "internalType": "uint256",
              "name": "tokenId",
              "type": "uint256"
            },
            {
              "internalType": "address",
              "name": "owner",
              "type": "address"
            },
            {
              "internalType": "uint256",
              "name": "value",
              "type": "uint256"
            },
            {
              "internalType": "uint256",
              "name": "lastClaimTime",
              "type": "uint256"
            },
            {
              "internalType": "uint256",
              "name": "startTime",
              "type": "uint256"
            },
            {
              "internalType": "uint256",
              "name": "stakedDuration",
              "type": "uint256"
            }
          ],
          "internalType": "struct IStakingPool.Stake[]",
          "name": "stakes",
          "type": "tuple[]"
        }
      ],
      "stateMutability": "view",
      "type": "function"
    },
    {
      "inputs": [
        {
          "internalType": "uint256[]",
          "name": "tokenIds",
          "type": "uint256[]"
        }
      ],
      "name": "getTokenLevels",
      "outputs": [
        {
          "internalType": "uint256[]",
          "name": "levels",
          "type": "uint256[]"
        }
      ],
      "stateMutability": "view",
      "type": "function"
    },
    {
      "inputs": [],
      "name": "levelMath",
      "outputs": [
        {
          "internalType": "contract ILevelMath",
          "name": "",
          "type": "address"
        }
      ],
      "stateMutability": "view",
      "type": "function"
    },
    {
      "inputs": [],
      "name": "mna",
      "outputs": [
        {
          "internalType": "contract IMnAv2",
          "name": "",
          "type": "address"
        }
      ],
      "stateMutability": "view",
      "type": "function"
    },
    {
      "inputs": [],
      "name": "owner",
      "outputs": [
        {
          "internalType": "address",
          "name": "",
          "type": "address"
        }
      ],
      "stateMutability": "view",
      "type": "function"
    },
    {
      "inputs": [],
      "name": "renounceOwnership",
      "outputs": [],
      "stateMutability": "nonpayable",
      "type": "function"
    },
    {
      "inputs": [],
      "name": "stakingPool",
      "outputs": [
        {
          "internalType": "contract IStakingPool",
          "name": "",
          "type": "address"
        }
      ],
      "stateMutability": "view",
      "type": "function"
    },
    {
      "inputs": [
        {
          "internalType": "address",
          "name": "newOwner",
          "type": "address"
        }
      ],
      "name": "transferOwnership",
      "outputs": [],
      "stateMutability": "nonpayable",
      "type": "function"
    }
  ],
  "bytecode": "0x608060405234801561001057600080fd5b50604051610fc3380380610fc383398101604081905261002f916100e6565b6100383361007a565b600180546001600160a01b039485166001600160a01b031991821617909155600280549385169382169390931790925560038054919093169116179055610129565b600080546001600160a01b038381166001600160a01b0319831681178455604051919092169283917f8be0079c531659141344cd1fd0a4f28419497f9722a3daafe3b4186f6b6457e09190a35050565b80516001600160a01b03811681146100e157600080fd5b919050565b6000806000606084860312156100fb57600080fd5b610104846100ca565b9250610112602085016100ca565b9150610120604085016100ca565b90509250925092565b610e8b806101386000396000f3fe608060405234801561001057600080fd5b50600436106100be5760003560e01c80638da5cb5b11610076578063efef449b1161005b578063efef449b14610174578063f2fde38b14610195578063fe5a436a146101a857600080fd5b80638da5cb5b14610143578063a6568d011461015457600080fd5b8063356a1b16116100a7578063356a1b16146101135780636cbbd5da14610126578063715018a61461013957600080fd5b80630c56ae3b146100c35780632f433ba0146100f3575b600080fd5b6003546100d6906001600160a01b031681565b6040516001600160a01b0390911681526020015b60405180910390f35b610106610101366004610a68565b6101c8565b6040516100ea9190610add565b6002546100d6906001600160a01b031681565b6001546100d6906001600160a01b031681565b6101416102d7565b005b6000546001600160a01b03166100d6565b610167610162366004610a68565b610342565b6040516100ea9190610b21565b610187610182366004610ba2565b610495565b6040519081526020016100ea565b6101416101a3366004610bd0565b61074e565b6101bb6101b6366004610a68565b610830565b6040516100ea9190610bf4565b60608167ffffffffffffffff8111156101e3576101e3610c55565b60405190808252806020026020018201604052801561020c578160200160208202803683370190505b50905060005b828110156102d0576002546001600160a01b031663d011645c85858481811061023d5761023d610c6b565b905060200201356040518263ffffffff1660e01b815260040161026291815260200190565b602060405180830381865afa15801561027f573d6000803e3d6000fd5b505050506040513d601f19601f820116820180604052508101906102a39190610c81565b8282815181106102b5576102b5610c6b565b60209081029190910101526102c981610cb0565b9050610212565b5092915050565b6000546001600160a01b031633146103365760405162461bcd60e51b815260206004820181905260248201527f4f776e61626c653a2063616c6c6572206973206e6f7420746865206f776e657260448201526064015b60405180910390fd5b6103406000610973565b565b60608167ffffffffffffffff81111561035d5761035d610c55565b6040519080825280602002602001820160405280156103d057816020015b6103bd6040518060c001604052806000815260200160006001600160a01b03168152602001600081526020016000815260200160008152602001600081525090565b81526020019060019003908161037b5790505b50905060005b828110156102d0576003546001600160a01b031663b3bcf8dd85858481811061040157610401610c6b565b905060200201356040518263ffffffff1660e01b815260040161042691815260200190565b60c060405180830381865afa158015610443573d6000803e3d6000fd5b505050506040513d601f19601f820116820180604052508101906104679190610cc9565b82828151811061047957610479610c6b565b60200260200101819052508061048e90610cb0565b90506103d6565b60006104d56040518060400160405280600481526020017f68657265000000000000000000000000000000000000000000000000000000008152506109db565b6002546040517f4019bfc7000000000000000000000000000000000000000000000000000000008152600481018490526000916001600160a01b031690634019bfc790602401602060405180830381865afa158015610538573d6000803e3d6000fd5b505050506040513d601f19601f8201168201806040525081019061055c9190610d5a565b90508061056c5750600092915050565b6003546040517fb3bcf8dd000000000000000000000000000000000000000000000000000000008152600481018590526000916001600160a01b03169063b3bcf8dd9060240160c060405180830381865afa1580156105cf573d6000803e3d6000fd5b505050506040513d601f19601f820116820180604052508101906105f39190610cc9565b6002546040517fd011645c000000000000000000000000000000000000000000000000000000008152600481018790529192506000916001600160a01b039091169063d011645c90602401602060405180830381865afa15801561065b573d6000803e3d6000fd5b505050506040513d601f19601f8201168201806040525081019061067f9190610c81565b6001546040517fd7dd9aa8000000000000000000000000000000000000000000000000000000008152600481018390529192506000916001600160a01b039091169063d7dd9aa89060240160a060405180830381865afa1580156106e7573d6000803e3d6000fd5b505050506040513d601f19601f8201168201806040525081019061070b9190610d7c565b90506000816080015184608001516107239190610dfa565b9050428111610739575060009695505050505050565b6107434282610e12565b979650505050505050565b6000546001600160a01b031633146107a85760405162461bcd60e51b815260206004820181905260248201527f4f776e61626c653a2063616c6c6572206973206e6f7420746865206f776e6572604482015260640161032d565b6001600160a01b0381166108245760405162461bcd60e51b815260206004820152602660248201527f4f776e61626c653a206e6577206f776e657220697320746865207a65726f206160448201527f6464726573730000000000000000000000000000000000000000000000000000606482015260840161032d565b61082d81610973565b50565b60608167ffffffffffffffff81111561084b5761084b610c55565b6040519080825280602002602001820160405280156108ae57816020015b61089b6040518060a0016040528060008152602001600081526020016000815260200160008152602001600081525090565b8152602001906001900390816108695790505b50905060005b828110156102d0576001546001600160a01b031663d7dd9aa88585848181106108df576108df610c6b565b905060200201356040518263ffffffff1660e01b815260040161090491815260200190565b60a060405180830381865afa158015610921573d6000803e3d6000fd5b505050506040513d601f19601f820116820180604052508101906109459190610d7c565b82828151811061095757610957610c6b565b60200260200101819052508061096c90610cb0565b90506108b4565b600080546001600160a01b038381167fffffffffffffffffffffffff0000000000000000000000000000000000000000831681178455604051919092169283917f8be0079c531659141344cd1fd0a4f28419497f9722a3daafe3b4186f6b6457e09190a35050565b61082d816040516024016109ef9190610e29565b60408051601f198184030181529190526020810180517bffffffffffffffffffffffffffffffffffffffffffffffffffffffff167f41304fac0000000000000000000000000000000000000000000000000000000017905280516a636f6e736f6c652e6c6f67602083016000808483855afa5050505050565b60008060208385031215610a7b57600080fd5b823567ffffffffffffffff80821115610a9357600080fd5b818501915085601f830112610aa757600080fd5b813581811115610ab657600080fd5b8660208260051b8501011115610acb57600080fd5b60209290920196919550909350505050565b6020808252825182820181905260009190848201906040850190845b81811015610b1557835183529284019291840191600101610af9565b50909695505050505050565b602080825282518282018190526000919060409081850190868401855b82811015610b9557815180518552868101516001600160a01b0316878601528581015186860152606080820151908601526080808201519086015260a0908101519085015260c09093019290850190600101610b3e565b5091979650505050505050565b600060208284031215610bb457600080fd5b5035919050565b6001600160a01b038116811461082d57600080fd5b600060208284031215610be257600080fd5b8135610bed81610bbb565b9392505050565b602080825282518282018190526000919060409081850190868401855b82811015610b955781518051855286810151878601528581015186860152606080820151908601526080908101519085015260a09093019290850190600101610c11565b634e487b7160e01b600052604160045260246000fd5b634e487b7160e01b600052603260045260246000fd5b600060208284031215610c9357600080fd5b5051919050565b634e487b7160e01b600052601160045260246000fd5b600060018201610cc257610cc2610c9a565b5060010190565b600060c08284031215610cdb57600080fd5b60405160c0810181811067ffffffffffffffff82111715610d0c57634e487b7160e01b600052604160045260246000fd5b604052825181526020830151610d2181610bbb565b8060208301525060408301516040820152606083015160608201526080830151608082015260a083015160a08201528091505092915050565b600060208284031215610d6c57600080fd5b81518015158114610bed57600080fd5b600060a08284031215610d8e57600080fd5b60405160a0810181811067ffffffffffffffff82111715610dbf57634e487b7160e01b600052604160045260246000fd5b806040525082518152602083015160208201526040830151604082015260608301516060820152608083015160808201528091505092915050565b60008219821115610e0d57610e0d610c9a565b500190565b600082821015610e2457610e24610c9a565b500390565b600060208083528351808285015260005b81811015610e5657858101830151858201604001528201610e3a565b81811115610e68576000604083870101525b50601f01601f191692909201604001939250505056fea164736f6c634300080d000a",
  "linkReferences": {},
  "deployedLinkReferences": {}
}