{
  "_format": "hh-sol-artifact-1",
  "contractName": "StakingPoolv2",
  "sourceName": "contracts/game/StakingPoolv2.sol",
  "abi": [
    {
      "anonymous": false,
      "inputs": [
        {
          "indexed": true,
          "internalType": "uint256",
          "name": "tokenId",
          "type": "uint256"
        },
        {
          "indexed": true,
          "internalType": "bool",
          "name": "unstaked",
          "type": "bool"
        },
        {
          "indexed": false,
          "internalType": "uint256",
          "name": "earned",
          "type": "uint256"
        }
      ],
      "name": "AlienClaimed",
      "type": "event"
    },
    {
      "anonymous": false,
      "inputs": [
        {
          "indexed": true,
          "internalType": "uint256",
          "name": "tokenId",
          "type": "uint256"
        },
        {
          "indexed": true,
          "internalType": "bool",
          "name": "unstaked",
          "type": "bool"
        },
        {
          "indexed": false,
          "internalType": "uint256",
          "name": "earned",
          "type": "uint256"
        }
      ],
      "name": "MarineClaimed",
      "type": "event"
    },
    {
      "anonymous": false,
      "inputs": [
        {
          "indexed": true,
          "internalType": "address",
          "name": "previousOwner",
          "type": "address"
        },
        {
          "indexed": true,
          "internalType": "address",
          "name": "newOwner",
          "type": "address"
        }
      ],
      "name": "OwnershipTransferred",
      "type": "event"
    },
    {
      "anonymous": false,
      "inputs": [
        {
          "indexed": false,
          "internalType": "address",
          "name": "account",
          "type": "address"
        }
      ],
      "name": "Paused",
      "type": "event"
    },
    {
      "anonymous": false,
      "inputs": [
        {
          "indexed": true,
          "internalType": "uint256",
          "name": "tokenId",
          "type": "uint256"
        },
        {
          "indexed": true,
          "internalType": "address",
          "name": "owner",
          "type": "address"
        },
        {
          "indexed": false,
          "internalType": "bool",
          "name": "isMarine",
          "type": "bool"
        },
        {
          "indexed": false,
          "internalType": "uint256",
          "name": "stakedDuration",
          "type": "uint256"
        },
        {
          "indexed": false,
          "internalType": "uint256",
          "name": "value",
          "type": "uint256"
        }
      ],
      "name": "TokenStaked",
      "type": "event"
    },
    {
      "anonymous": false,
      "inputs": [
        {
          "indexed": false,
          "internalType": "address",
          "name": "account",
          "type": "address"
        }
      ],
      "name": "Unpaused",
      "type": "event"
    },
    {
      "inputs": [],
      "name": "KLAYE_CLAIM_TAX_PERCENTAGE",
      "outputs": [
        {
          "internalType": "uint256",
          "name": "",
          "type": "uint256"
        }
      ],
      "stateMutability": "view",
      "type": "function"
    },
    {
      "inputs": [],
      "name": "MAX_RANK",
      "outputs": [
        {
          "internalType": "uint8",
          "name": "",
          "type": "uint8"
        }
      ],
      "stateMutability": "view",
      "type": "function"
    },
    {
      "inputs": [],
      "name": "MINIMUM_TO_EXIT",
      "outputs": [
        {
          "internalType": "uint256",
          "name": "",
          "type": "uint256"
        }
      ],
      "stateMutability": "view",
      "type": "function"
    },
    {
      "inputs": [],
      "name": "UNSTAKE_KLAYE_AMOUNT",
      "outputs": [
        {
          "internalType": "uint256",
          "name": "",
          "type": "uint256"
        }
      ],
      "stateMutability": "view",
      "type": "function"
    },
    {
      "inputs": [
        {
          "internalType": "address",
          "name": "account",
          "type": "address"
        },
        {
          "internalType": "uint256[]",
          "name": "tokenIds",
          "type": "uint256[]"
        }
      ],
      "name": "addManyToMarinePoolAndAlienPool",
      "outputs": [],
      "stateMutability": "nonpayable",
      "type": "function"
    },
    {
      "inputs": [
        {
          "internalType": "uint256",
          "name": "",
          "type": "uint256"
        },
        {
          "internalType": "uint256",
          "name": "",
          "type": "uint256"
        }
      ],
      "name": "alienPool",
      "outputs": [
        {
          "internalType": "uint256",
          "name": "tokenId",
          "type": "uint256"
        },
        {
          "internalType": "address",
          "name": "owner",
          "type": "address"
        },
        {
          "internalType": "uint256",
          "name": "value",
          "type": "uint256"
        },
        {
          "internalType": "uint256",
          "name": "lastClaimTime",
          "type": "uint256"
        },
        {
          "internalType": "uint256",
          "name": "startTime",
          "type": "uint256"
        },
        {
          "internalType": "uint256",
          "name": "stakedDuration",
          "type": "uint256"
        }
      ],
      "stateMutability": "view",
      "type": "function"
    },
    {
      "inputs": [
        {
          "internalType": "uint256",
          "name": "tokenId",
          "type": "uint256"
        }
      ],
      "name": "calculateRewards",
      "outputs": [
        {
          "internalType": "uint256",
          "name": "owed",
          "type": "uint256"
        }
      ],
      "stateMutability": "view",
      "type": "function"
    },
    {
      "inputs": [
        {
          "internalType": "uint256",
          "name": "tokenId",
          "type": "uint256"
        }
      ],
      "name": "canStake",
      "outputs": [
        {
          "internalType": "bool",
          "name": "",
          "type": "bool"
        }
      ],
      "stateMutability": "view",
      "type": "function"
    },
    {
      "inputs": [
        {
          "internalType": "uint256[]",
          "name": "tokenIds",
          "type": "uint256[]"
        },
        {
          "internalType": "bool",
          "name": "unstake",
          "type": "bool"
        }
      ],
      "name": "claimManyFromMarinePoolAndAlienPool",
      "outputs": [],
      "stateMutability": "nonpayable",
      "type": "function"
    },
    {
      "inputs": [],
      "name": "initialize",
      "outputs": [],
      "stateMutability": "nonpayable",
      "type": "function"
    },
    {
      "inputs": [],
      "name": "klayeToken",
      "outputs": [
        {
          "internalType": "contract IKLAYE",
          "name": "",
          "type": "address"
        }
      ],
      "stateMutability": "view",
      "type": "function"
    },
    {
      "inputs": [],
      "name": "levelMath",
      "outputs": [
        {
          "internalType": "contract ILevelMath",
          "name": "",
          "type": "address"
        }
      ],
      "stateMutability": "view",
      "type": "function"
    },
    {
      "inputs": [
        {
          "internalType": "uint256",
          "name": "",
          "type": "uint256"
        }
      ],
      "name": "marinePool",
      "outputs": [
        {
          "internalType": "uint256",
          "name": "tokenId",
          "type": "uint256"
        },
        {
          "internalType": "address",
          "name": "owner",
          "type": "address"
        },
        {
          "internalType": "uint256",
          "name": "value",
          "type": "uint256"
        },
        {
          "internalType": "uint256",
          "name": "lastClaimTime",
          "type": "uint256"
        },
        {
          "internalType": "uint256",
          "name": "startTime",
          "type": "uint256"
        },
        {
          "internalType": "uint256",
          "name": "stakedDuration",
          "type": "uint256"
        }
      ],
      "stateMutability": "view",
      "type": "function"
    },
    {
      "inputs": [],
      "name": "mnaNFT",
      "outputs": [
        {
          "internalType": "contract IMnAv2",
          "name": "",
          "type": "address"
        }
      ],
      "stateMutability": "view",
      "type": "function"
    },
    {
      "inputs": [
        {
          "internalType": "address",
          "name": "",
          "type": "address"
        },
        {
          "internalType": "address",
          "name": "from",
          "type": "address"
        },
        {
          "internalType": "uint256",
          "name": "",
          "type": "uint256"
        },
        {
          "internalType": "bytes",
          "name": "",
          "type": "bytes"
        }
      ],
      "name": "onERC721Received",
      "outputs": [
        {
          "internalType": "bytes4",
          "name": "",
          "type": "bytes4"
        }
      ],
      "stateMutability": "pure",
      "type": "function"
    },
    {
      "inputs": [],
      "name": "oresToken",
      "outputs": [
        {
          "internalType": "contract IORES",
          "name": "",
          "type": "address"
        }
      ],
      "stateMutability": "view",
      "type": "function"
    },
    {
      "inputs": [],
      "name": "owner",
      "outputs": [
        {
          "internalType": "address",
          "name": "",
          "type": "address"
        }
      ],
      "stateMutability": "view",
      "type": "function"
    },
    {
      "inputs": [],
      "name": "paused",
      "outputs": [
        {
          "internalType": "bool",
          "name": "",
          "type": "bool"
        }
      ],
      "stateMutability": "view",
      "type": "function"
    },
    {
      "inputs": [],
      "name": "renounceOwnership",
      "outputs": [],
      "stateMutability": "nonpayable",
      "type": "function"
    },
    {
      "inputs": [
        {
          "internalType": "uint256[]",
          "name": "tokenIds",
          "type": "uint256[]"
        }
      ],
      "name": "rescue",
      "outputs": [],
      "stateMutability": "nonpayable",
      "type": "function"
    },
    {
      "inputs": [],
      "name": "rescueEnabled",
      "outputs": [
        {
          "internalType": "bool",
          "name": "",
          "type": "bool"
        }
      ],
      "stateMutability": "view",
      "type": "function"
    },
    {
      "inputs": [
        {
          "internalType": "address",
          "name": "_mnaNFT",
          "type": "address"
        },
        {
          "internalType": "address",
          "name": "_klaye",
          "type": "address"
        },
        {
          "internalType": "address",
          "name": "_ores",
          "type": "address"
        },
        {
          "internalType": "address",
          "name": "_levelMath",
          "type": "address"
        }
      ],
      "name": "setContracts",
      "outputs": [],
      "stateMutability": "nonpayable",
      "type": "function"
    },
    {
      "inputs": [
        {
          "internalType": "bool",
          "name": "_paused",
          "type": "bool"
        }
      ],
      "name": "setPaused",
      "outputs": [],
      "stateMutability": "nonpayable",
      "type": "function"
    },
    {
      "inputs": [
        {
          "internalType": "bool",
          "name": "_enabled",
          "type": "bool"
        }
      ],
      "name": "setRescueEnabled",
      "outputs": [],
      "stateMutability": "nonpayable",
      "type": "function"
    },
    {
      "inputs": [],
      "name": "totalKLAYEEarned",
      "outputs": [
        {
          "internalType": "uint256",
          "name": "",
          "type": "uint256"
        }
      ],
      "stateMutability": "view",
      "type": "function"
    },
    {
      "inputs": [
        {
          "internalType": "address",
          "name": "newOwner",
          "type": "address"
        }
      ],
      "name": "transferOwnership",
      "outputs": [],
      "stateMutability": "nonpayable",
      "type": "function"
    },
    {
      "inputs": [
        {
          "internalType": "uint256[]",
          "name": "tokenIds",
          "type": "uint256[]"
        }
      ],
      "name": "upgradeLevel",
      "outputs": [],
      "stateMutability": "nonpayable",
      "type": "function"
    }
  ],
  "bytecode": "0x60806040526729a2241af62c000060d35534801561001c57600080fd5b506134228061002c6000396000f3fe608060405234801561001057600080fd5b50600436106101b95760003560e01c80638129fc1c116100f9578063b3bcf8dd11610097578063bf989b6e11610071578063bf989b6e146103f1578063c97b9c5a14610404578063d3ea435014610417578063f2fde38b1461042a57600080fd5b8063b3bcf8dd1461037e578063bb7789fc146103cb578063bd3fae82146103de57600080fd5b806395583101116100d357806395583101146103355780639bcfc8281461033e5780639bd445ba146103515780639e3bcb8d1461036457600080fd5b80638129fc1c14610314578063826c48071461031c5780638da5cb5b1461032457600080fd5b806353906653116101665780636cbbd5da116101405780636cbbd5da146102dd578063707a9488146102f0578063715018a6146102f9578063765310081461030157600080fd5b806353906653146102ac5780635c975abb146102bf5780636a3ef057146102ca57600080fd5b806337a386b91161019757806337a386b91461022f57806339db714f146102475780634b809de31461026457600080fd5b8063150b7a02146101be57806316c38b3c146101ef578063357bad8c14610204575b600080fd5b6101d16101cc366004612df5565b61043d565b6040516001600160e01b031990911681526020015b60405180910390f35b6102026101fd366004612ea2565b6104ec565b005b60ca54610217906001600160a01b031681565b6040516001600160a01b0390911681526020016101e6565b6102396202a30081565b6040519081526020016101e6565b60d6546102549060ff1681565b60405190151581526020016101e6565b610277610272366004612ebf565b6105fb565b604080519687526001600160a01b039095166020870152938501929092526060840152608083015260a082015260c0016101e6565b6102546102ba366004612ee1565b610659565b60975460ff16610254565b6102026102d8366004612f46565b61082d565b60cc54610217906001600160a01b031681565b61023960d35481565b610202610f43565b61020261030f366004612ea2565b610fa9565b610202611016565b610239601481565b6033546001600160a01b0316610217565b61023960d45481565b61020261034c366004612f88565b6110fd565b60cb54610217906001600160a01b031681565b61036c600481565b60405160ff90911681526020016101e6565b61027761038c366004612ee1565b60ce6020526000908152604090208054600182015460028301546003840154600485015460059095015493946001600160a01b03909316939192909186565b6102026103d9366004612f46565b6114c9565b60cd54610217906001600160a01b031681565b6102026103ff366004612fdd565b611855565b610202610412366004613039565b6118ff565b610239610425366004612ee1565b611bd9565b610202610438366004613090565b611ef5565b60006001600160a01b038516156104c15760405162461bcd60e51b815260206004820152602260248201527f43616e6e6f742073656e6420746f204d6172696e65506f6f6c2064697265637460448201527f6c7900000000000000000000000000000000000000000000000000000000000060648201526084015b60405180910390fd5b507f150b7a020000000000000000000000000000000000000000000000000000000095945050505050565b60ca546001600160a01b031615801590610510575060cb546001600160a01b031615155b8015610526575060cd546001600160a01b031615155b801561053c575060cc546001600160a01b031615155b6105885760405162461bcd60e51b815260206004820152601160248201527f436f6e747261637473206e6f742073657400000000000000000000000000000060448201526064016104b8565b6033546001600160a01b031633146105e25760405162461bcd60e51b815260206004820181905260248201527f4f776e61626c653a2063616c6c6572206973206e6f7420746865206f776e657260448201526064016104b8565b80156105f3576105f0611fd4565b50565b6105f061206c565b60cf602052816000526040600020818154811061061757600080fd5b60009182526020909120600690910201805460018201546002830154600384015460048501546005909501549396506001600160a01b03909216945092909186565b60ca54604051634019bfc760e01b8152600481018390526000916001600160a01b031690634019bfc790602401602060405180830381865afa1580156106a3573d6000803e3d6000fd5b505050506040513d601f19601f820116820180604052508101906106c791906130b8565b156108205760ca54604051633404591760e21b8152600481018490526000916001600160a01b03169063d011645c90602401602060405180830381865afa158015610716573d6000803e3d6000fd5b505050506040513d601f19601f8201168201806040525081019061073a91906130d5565b60cc54604051631afbb35560e31b8152600481018390529192506000916001600160a01b039091169063d7dd9aa89060240160a060405180830381865afa158015610789573d6000803e3d6000fd5b505050506040513d601f19601f820116820180604052508101906107ad9190613126565b600094855260ce6020908152604095869020865160c0810188528154815260018201546001600160a01b03169281019290925260028101549682019690965260038601546060820152600486015460808083019190915260059096015460a0909101819052940151939093119392505050565b506001919050565b919050565b60026065540361087f5760405162461bcd60e51b815260206004820152601f60248201527f5265656e7472616e637947756172643a207265656e7472616e742063616c6c0060448201526064016104b8565b600260655560d65460ff166108d65760405162461bcd60e51b815260206004820152600f60248201527f5245534355452044495341424c4544000000000000000000000000000000000060448201526064016104b8565b600061091a6040518060c001604052806000815260200160006001600160a01b03168152602001600081526020016000815260200160008152602001600081525090565b61095c6040518060c001604052806000815260200160006001600160a01b03168152602001600081526020016000815260200160008152602001600081525090565b6000805b85811015610f355786868281811061097a5761097a6131a4565b60ca54604051634019bfc760e01b815260209290920293909301356004820181905297506001600160a01b0390921691634019bfc79150602401602060405180830381865afa1580156109d1573d6000803e3d6000fd5b505050506040513d601f19601f820116820180604052508101906109f591906130b8565b15610b9457600085815260ce6020908152604091829020825160c0810184528154815260018201546001600160a01b031692810183905260028201549381019390935260038101546060840152600481015460808401526005015460a08301529094503314610aa65760405162461bcd60e51b815260206004820152601260248201527f5357495045522c204e4f2053574950494e47000000000000000000000000000060448201526064016104b8565b836080015184606001518560a00151610abf91906131d0565b610ac991906131e7565b60a085015260ca546001600160a01b031663b88d4fde30336040516001600160e01b031960e085901b1681526001600160a01b0392831660048201529116602482015260448101889052608060648201526000608482015260a401600060405180830381600087803b158015610b3e57600080fd5b505af1158015610b52573d6000803e3d6000fd5b505060405160008152600192508791507f9cb40271f339db1081126b3a1e1bd03e3a8258e076fd708dec87a021290adbb09060200160405180910390a3610f23565b610b9d856120ef565b60ff8116600090815260cf6020908152604080832089845260d090925290912054815492945090918110610bd357610bd36131a4565b60009182526020918290206040805160c08101825260069093029091018054835260018101546001600160a01b031693830193909352600283015490820152600382015460608201526004820154608082015260059091015460a08201529350610c3a3390565b6001600160a01b031684602001516001600160a01b031614610c9e5760405162461bcd60e51b815260206004820152601260248201527f5357495045522c204e4f2053574950494e47000000000000000000000000000060448201526064016104b8565b8160ff1660c96000828254610cb391906131d0565b909155505060ff8216600090815260cf602052604090208054610cd8906001906131d0565b81548110610ce857610ce86131a4565b600091825260208083206040805160c08101825260069094029091018054845260018101546001600160a01b03168484015260028101548483015260038101546060850152600481015460808501526005015460a084015260ff8616845260cf825280842089855260d09092529092205482549195508592918110610d6f57610d6f6131a4565b60009182526020808320845160069390930201918255838101516001830180546001600160a01b0319166001600160a01b039092169190911790556040808501516002840155606085015160038401556080850151600484015560a09094015160059092019190915587825260d0815282822054865183528383205560ff8516825260cf905220805480610e0557610e056131ff565b600082815260208082206006600019909401938402018281556001810180546001600160a01b03191690556002810183905560038101839055600481018390556005018290559190925586825260d09052604081205560ca546001600160a01b031663b88d4fde30610e743390565b6040516001600160e01b031960e085901b1681526001600160a01b0392831660048201529116602482015260448101889052608060648201526000608482015260a401600060405180830381600087803b158015610ed157600080fd5b505af1158015610ee5573d6000803e3d6000fd5b505060405160008152600192508791507f261f0854432bace3f0023f1dd8d91177b3bc455fb50acd7491782cd858b24c729060200160405180910390a35b80610f2d81613215565b915050610960565b505060016065555050505050565b6033546001600160a01b03163314610f9d5760405162461bcd60e51b815260206004820181905260248201527f4f776e61626c653a2063616c6c6572206973206e6f7420746865206f776e657260448201526064016104b8565b610fa76000612196565b565b6033546001600160a01b031633146110035760405162461bcd60e51b815260206004820181905260248201527f4f776e61626c653a2063616c6c6572206973206e6f7420746865206f776e657260448201526064016104b8565b60d6805460ff1916911515919091179055565b600054610100900460ff166110315760005460ff1615611035565b303b155b6110a75760405162461bcd60e51b815260206004820152602e60248201527f496e697469616c697a61626c653a20636f6e747261637420697320616c72656160448201527f647920696e697469616c697a656400000000000000000000000000000000000060648201526084016104b8565b600054610100900460ff161580156110c9576000805461ffff19166101011790555b6110d16121e8565b6110d961225f565b6110e16122d1565b6110e9611fd4565b80156105f0576000805461ff001916905550565b60026065540361114f5760405162461bcd60e51b815260206004820152601f60248201527f5265656e7472616e637947756172643a207265656e7472616e742063616c6c0060448201526064016104b8565b600260655532331461118e5760405162461bcd60e51b81526020600482015260086024820152674f6e6c7920454f4160c01b60448201526064016104b8565b6001600160a01b03831632146111e65760405162461bcd60e51b815260206004820152601a60248201527f6163636f756e7420746f2073656e646572206d69736d6174636800000000000060448201526064016104b8565b60005b818110156114be5760ca5433906001600160a01b0316636352211e858585818110611216576112166131a4565b905060200201356040518263ffffffff1660e01b815260040161123b91815260200190565b602060405180830381865afa158015611258573d6000803e3d6000fd5b505050506040513d601f19601f8201168201806040525081019061127c919061322e565b6001600160a01b0316146112d25760405162461bcd60e51b815260206004820152601860248201527f596f7520646f6e2774206f776e207468697320746f6b656e000000000000000060448201526064016104b8565b6112f38383838181106112e7576112e76131a4565b90506020020135610659565b61133f5760405162461bcd60e51b815260206004820181905260248201527f63616e2774207374616b652e2075706772616465206c6576656c20666972737460448201526064016104b8565b60ca546001600160a01b03166323b872dd3330868686818110611364576113646131a4565b6040516001600160e01b031960e088901b1681526001600160a01b03958616600482015294909316602485015250602090910201356044820152606401600060405180830381600087803b1580156113bb57600080fd5b505af11580156113cf573d6000803e3d6000fd5b505060ca546001600160a01b03169150634019bfc790508484848181106113f8576113f86131a4565b905060200201356040518263ffffffff1660e01b815260040161141d91815260200190565b602060405180830381865afa15801561143a573d6000803e3d6000fd5b505050506040513d601f19601f8201168201806040525081019061145e91906130b8565b1561148a5761148584848484818110611479576114796131a4565b90506020020135612345565b6114ac565b6114ac848484848181106114a0576114a06131a4565b90506020020135612421565b806114b681613215565b9150506111e9565b505060016065555050565b60975460ff161561150f5760405162461bcd60e51b815260206004820152601060248201526f14185d5cd8589b194e881c185d5cd95960821b60448201526064016104b8565b61151b828260006118ff565b6000805b8281101561165157600084848381811061153b5761153b6131a4565b60ca54604051633404591760e21b815260209290920293909301356004820181905293506000926001600160a01b0316915063d011645c90602401602060405180830381865afa158015611593573d6000803e3d6000fd5b505050506040513d601f19601f820116820180604052508101906115b791906130d5565b60cc54604051631afbb35560e31b8152600481018390529192506000916001600160a01b039091169063d7dd9aa89060240160a060405180830381865afa158015611606573d6000803e3d6000fd5b505050506040513d601f19601f8201168201806040525081019061162a9190613126565b805190915061163990866131e7565b9450505050808061164990613215565b91505061151f565b5080156116e35760cd546001600160a01b03166323b872dd336040516001600160e01b031960e084901b1681526001600160a01b039091166004820152306024820152604481018490526064016020604051808303816000875af11580156116bd573d6000803e3d6000fd5b505050506040513d601f19601f820116820180604052508101906116e191906130b8565b505b60cd5460ca546040517f095ea7b30000000000000000000000000000000000000000000000000000000081526001600160a01b0391821660048201526024810184905291169063095ea7b3906044016020604051808303816000875af1158015611751573d6000803e3d6000fd5b505050506040513d601f19601f8201168201806040525081019061177591906130b8565b5060ca546040517fbb7789fc0000000000000000000000000000000000000000000000000000000081526001600160a01b039091169063bb7789fc906117c1908690869060040161324b565b600060405180830381600087803b1580156117db57600080fd5b505af11580156117ef573d6000803e3d6000fd5b5050505060005b8281101561184f576000848483818110611812576118126131a4565b60209081029290920135600090815260ce90925250604081204260048201819055600382015560050155508061184781613215565b9150506117f6565b50505050565b6033546001600160a01b031633146118af5760405162461bcd60e51b815260206004820181905260248201527f4f776e61626c653a2063616c6c6572206973206e6f7420746865206f776e657260448201526064016104b8565b60ca80546001600160a01b039586166001600160a01b03199182161790915560cb80549486169482169490941790935560cd80549285169284169290921790915560cc8054919093169116179055565b60975460ff16156119455760405162461bcd60e51b815260206004820152601060248201526f14185d5cd8589b194e881c185d5cd95960821b60448201526064016104b8565b6002606554036119975760405162461bcd60e51b815260206004820152601f60248201527f5265656e7472616e637947756172643a207265656e7472616e742063616c6c0060448201526064016104b8565b60026065553233146119d65760405162461bcd60e51b81526020600482015260086024820152674f6e6c7920454f4160c01b60448201526064016104b8565b6000805b83811015611ae45760ca546001600160a01b0316634019bfc7868684818110611a0557611a056131a4565b905060200201356040518263ffffffff1660e01b8152600401611a2a91815260200190565b602060405180830381865afa158015611a47573d6000803e3d6000fd5b505050506040513d601f19601f82011682018060405250810190611a6b91906130b8565b15611aa357611a92858583818110611a8557611a856131a4565b9050602002013584612542565b611a9c90836131e7565b9150611ad2565b611ac5858583818110611ab857611ab86131a4565b905060200201358461277d565b611acf90836131e7565b91505b80611adc81613215565b9150506119da565b5060cb60009054906101000a90046001600160a01b03166001600160a01b0316639c47ee3b6040518163ffffffff1660e01b8152600401600060405180830381600087803b158015611b3557600080fd5b505af1158015611b49573d6000803e3d6000fd5b5050505080600003611b5b5750611bcf565b60cb546001600160a01b03166340c10f19336040516001600160e01b031960e084901b1681526001600160a01b03909116600482015260248101849052604401600060405180830381600087803b158015611bb557600080fd5b505af1158015611bc9573d6000803e3d6000fd5b50505050505b5050600160655550565b60ca54604051634019bfc760e01b8152600481018390526000916001600160a01b031690634019bfc790602401602060405180830381865afa158015611c23573d6000803e3d6000fd5b505050506040513d601f19601f82011682018060405250810190611c4791906130b8565b15611e2757600082815260ce60209081526040808320815160c0810183528154815260018201546001600160a01b039081169482019490945260028201548184015260038201546060820152600480830154608083015260059092015460a082015260ca549251633404591760e21b81529182018790529392919091169063d011645c90602401602060405180830381865afa158015611ceb573d6000803e3d6000fd5b505050506040513d601f19601f82011682018060405250810190611d0f91906130d5565b60cc54604051631afbb35560e31b8152600481018390529192506000916001600160a01b039091169063d7dd9aa89060240160a060405180830381865afa158015611d5e573d6000803e3d6000fd5b505050506040513d601f19601f82011682018060405250810190611d829190613126565b90506000836080015184606001518560a00151611d9f91906131e7565b611da991906131d0565b905080826080015111611dbf5760009450611e1e565b6000818360800151611dd191906131d0565b90506000856060015142611de591906131d0565b90506000818311611df65782611df8565b815b905062015180856060015182611e0e91906132a0565b611e1891906132bf565b97505050505b50505050919050565b6000611e32836120ef565b9050600060cf60008360ff16815260200190815260200160002060d060008681526020019081526020016000205481548110611e7057611e706131a4565b60009182526020918290206040805160c08101825260069093029091018054835260018101546001600160a01b0316938301939093526002830154908201819052600383015460608301526004830154608083015260059092015460a082015260d254909250611ee091906131d0565b611eed9060ff84166132a0565b949350505050565b6033546001600160a01b03163314611f4f5760405162461bcd60e51b815260206004820181905260248201527f4f776e61626c653a2063616c6c6572206973206e6f7420746865206f776e657260448201526064016104b8565b6001600160a01b038116611fcb5760405162461bcd60e51b815260206004820152602660248201527f4f776e61626c653a206e6577206f776e657220697320746865207a65726f206160448201527f646472657373000000000000000000000000000000000000000000000000000060648201526084016104b8565b6105f081612196565b60975460ff161561201a5760405162461bcd60e51b815260206004820152601060248201526f14185d5cd8589b194e881c185d5cd95960821b60448201526064016104b8565b6097805460ff191660011790557f62e78cea01bee320cd4e420270b5ea74000d11b0c9f74754ebdbfc544b05a25861204f3390565b6040516001600160a01b03909116815260200160405180910390a1565b60975460ff166120be5760405162461bcd60e51b815260206004820152601460248201527f5061757361626c653a206e6f742070617573656400000000000000000000000060448201526064016104b8565b6097805460ff191690557f5db9ee0a495bf2e6ff9c91a7834c1ba4fdd244a5e8aa4e537bd38aeae4b073aa3361204f565b60ca546040517f94e568470000000000000000000000000000000000000000000000000000000081526004810183905260009182916001600160a01b03909116906394e56847906024016101a060405180830381865afa158015612157573d6000803e3d6000fd5b505050506040513d601f19601f8201168201806040525081019061217b91906132f2565b9050806101800151600161218f91906133f0565b9392505050565b603380546001600160a01b038381166001600160a01b0319831681179093556040519116919082907f8be0079c531659141344cd1fd0a4f28419497f9722a3daafe3b4186f6b6457e090600090a35050565b600054610100900460ff166122535760405162461bcd60e51b815260206004820152602b60248201527f496e697469616c697a61626c653a20636f6e7472616374206973206e6f74206960448201526a6e697469616c697a696e6760a81b60648201526084016104b8565b6097805460ff19169055565b600054610100900460ff166122ca5760405162461bcd60e51b815260206004820152602b60248201527f496e697469616c697a61626c653a20636f6e7472616374206973206e6f74206960448201526a6e697469616c697a696e6760a81b60648201526084016104b8565b6001606555565b600054610100900460ff1661233c5760405162461bcd60e51b815260206004820152602b60248201527f496e697469616c697a61626c653a20636f6e7472616374206973206e6f74206960448201526a6e697469616c697a696e6760a81b60648201526084016104b8565b610fa733612196565b60975460ff161561238b5760405162461bcd60e51b815260206004820152601060248201526f14185d5cd8589b194e881c185d5cd95960821b60448201526064016104b8565b600081815260ce60209081526040808320848155600180820180546001600160a01b0319166001600160a01b038916908117909155426004840181905560038401556005830154600284018790558451928352948201949094529182019390935283907f4906e354a9bd111d27ae73b8f90820d60fec6d26539a57a55e4e159d1473bd68906060015b60405180910390a3505050565b600061242c826120ef565b90508060ff1660c9600082825461244391906131e7565b909155505060ff8116600090815260cf60208181526040808420805487865260d08452828620819055938352815160c0810183528781526001600160a01b0389811682860181815260d280548588019081524260608088018281526080890192835260a089018e81526001808f018c559a8f528c8f2099516006909e029099019c8d559451988c0180546001600160a01b03191699909716989098179095555160028a015590516003890155915160048801559151600590960195909555935482518681529384019590955290820193909352909184917f4906e354a9bd111d27ae73b8f90820d60fec6d26539a57a55e4e159d1473bd689101612414565b600082815260ce6020526040812060018101546001600160a01b031633146125ac5760405162461bcd60e51b815260206004820152601960248201527f446f6e2774206f776e2074686520676976656e20746f6b656e0000000000000060448201526064016104b8565b6125b584611bd9565b91506125d660646125c76014856132a0565b6125d191906132bf565b612d84565b60646125e36014826131d0565b6125ed90846132a0565b6125f791906132bf565b426003830155915082156127395760d35482101561267d5760405162461bcd60e51b815260206004820152603160248201527f556e7374616b6520616d6f756e7420697320736d616c6c6572207468616e207460448201527f68652070656e616c747920616d6f756e7400000000000000000000000000000060648201526084016104b8565b60d35461268a90836131d0565b915080600501548160040154426126a191906131d0565b6126ab91906131e7565b600582015560ca546001600160a01b031663b88d4fde30336040516001600160e01b031960e085901b1681526001600160a01b0392831660048201529116602482015260448101879052608060648201526000608482015260a401600060405180830381600087803b15801561272057600080fd5b505af1158015612734573d6000803e3d6000fd5b505050505b821515847f9cb40271f339db1081126b3a1e1bd03e3a8258e076fd708dec87a021290adbb08460405161276e91815260200190565b60405180910390a35092915050565b60ca546040517f6352211e0000000000000000000000000000000000000000000000000000000081526004810184905260009130916001600160a01b0390911690636352211e90602401602060405180830381865afa1580156127e4573d6000803e3d6000fd5b505050506040513d601f19601f82011682018060405250810190612808919061322e565b6001600160a01b03161461285e5760405162461bcd60e51b815260206004820152601160248201527f446f65736e2774206f776e20746f6b656e00000000000000000000000000000060448201526064016104b8565b6000612869846120ef565b9050600060cf60008360ff16815260200190815260200160002060d0600087815260200190815260200160002054815481106128a7576128a76131a4565b60009182526020918290206040805160c08101825260069093029091018054835260018101546001600160a01b031693830193909352600283015490820152600382015460608201526004820154608082015260059091015460a0820152905061290e3390565b6001600160a01b031681602001516001600160a01b0316146129725760405162461bcd60e51b815260206004820152601160248201527f446f65736e2774206f776e20746f6b656e00000000000000000000000000000060448201526064016104b8565b61297b85611bd9565b92508315612c5b5760d3548310156129fb5760405162461bcd60e51b815260206004820152603160248201527f556e7374616b6520616d6f756e7420697320736d616c6c6572207468616e207460448201527f68652070656e616c747920616d6f756e7400000000000000000000000000000060648201526084016104b8565b60d354612a0890846131d0565b92508160ff1660c96000828254612a1f91906131d0565b909155505060ff8216600090815260cf602052604081208054612a44906001906131d0565b81548110612a5457612a546131a4565b600091825260208083206040805160c08101825260069094029091018054845260018101546001600160a01b03168484015260028101548483015260038101546060850152600481015460808501526005015460a084015260ff8716845260cf82528084208a855260d09092529092205482549193508392918110612adb57612adb6131a4565b60009182526020808320845160069390930201918255838101516001830180546001600160a01b0319166001600160a01b039092169190911790556040808501516002840155606085015160038401556080850151600484015560a09094015160059092019190915588825260d0815282822054845183528383205560ff8616825260cf905220805480612b7157612b716131ff565b600082815260208082206006600019909401938402018281556001810180546001600160a01b03191690556002810183905560038101839055600481018390556005018290559190925587825260d09052604081205560ca546001600160a01b031663b88d4fde30612be03390565b6040516001600160e01b031960e085901b1681526001600160a01b0392831660048201529116602482015260448101899052608060648201526000608482015260a401600060405180830381600087803b158015612c3d57600080fd5b505af1158015612c51573d6000803e3d6000fd5b5050505050612d3f565b6040518060c00160405280868152602001612c733390565b6001600160a01b0316815260200160d254815260200142815260200182608001518152602001600081525060cf60008460ff16815260200190815260200160002060d060008881526020019081526020016000205481548110612cd857612cd86131a4565b6000918252602091829020835160069290920201908155908201516001820180546001600160a01b0319166001600160a01b0390921691909117905560408201516002820155606082015160038201556080820151600482015560a0909101516005909101555b831515857f261f0854432bace3f0023f1dd8d91177b3bc455fb50acd7491782cd858b24c7285604051612d7491815260200190565b60405180910390a3505092915050565b60c954600003612da8578060d16000828254612da091906131e7565b909155505050565b60c95460d154612db890836131e7565b612dc291906132bf565b60d26000828254612dd391906131e7565b9091555050600060d15550565b6001600160a01b03811681146105f057600080fd5b600080600080600060808688031215612e0d57600080fd5b8535612e1881612de0565b94506020860135612e2881612de0565b935060408601359250606086013567ffffffffffffffff80821115612e4c57600080fd5b818801915088601f830112612e6057600080fd5b813581811115612e6f57600080fd5b896020828501011115612e8157600080fd5b9699959850939650602001949392505050565b80151581146105f057600080fd5b600060208284031215612eb457600080fd5b813561218f81612e94565b60008060408385031215612ed257600080fd5b50508035926020909101359150565b600060208284031215612ef357600080fd5b5035919050565b60008083601f840112612f0c57600080fd5b50813567ffffffffffffffff811115612f2457600080fd5b6020830191508360208260051b8501011115612f3f57600080fd5b9250929050565b60008060208385031215612f5957600080fd5b823567ffffffffffffffff811115612f7057600080fd5b612f7c85828601612efa565b90969095509350505050565b600080600060408486031215612f9d57600080fd5b8335612fa881612de0565b9250602084013567ffffffffffffffff811115612fc457600080fd5b612fd086828701612efa565b9497909650939450505050565b60008060008060808587031215612ff357600080fd5b8435612ffe81612de0565b9350602085013561300e81612de0565b9250604085013561301e81612de0565b9150606085013561302e81612de0565b939692955090935050565b60008060006040848603121561304e57600080fd5b833567ffffffffffffffff81111561306557600080fd5b61307186828701612efa565b909450925050602084013561308581612e94565b809150509250925092565b6000602082840312156130a257600080fd5b813561218f81612de0565b805161082881612e94565b6000602082840312156130ca57600080fd5b815161218f81612e94565b6000602082840312156130e757600080fd5b5051919050565b6040516101a0810167ffffffffffffffff8111828210171561312057634e487b7160e01b600052604160045260246000fd5b60405290565b600060a0828403121561313857600080fd5b60405160a0810181811067ffffffffffffffff8211171561316957634e487b7160e01b600052604160045260246000fd5b806040525082518152602083015160208201526040830151604082015260608301516060820152608083015160808201528091505092915050565b634e487b7160e01b600052603260045260246000fd5b634e487b7160e01b600052601160045260246000fd5b6000828210156131e2576131e26131ba565b500390565b600082198211156131fa576131fa6131ba565b500190565b634e487b7160e01b600052603160045260246000fd5b600060018201613227576132276131ba565b5060010190565b60006020828403121561324057600080fd5b815161218f81612de0565b6020815281602082015260007f07ffffffffffffffffffffffffffffffffffffffffffffffffffffffffffffff83111561328457600080fd5b8260051b80856040850137600092016040019182525092915050565b60008160001904831182151516156132ba576132ba6131ba565b500290565b6000826132dc57634e487b7160e01b600052601260045260246000fd5b500490565b805160ff8116811461082857600080fd5b60006101a0828403121561330557600080fd5b61330d6130ee565b613316836130ad565b8152613324602084016132e1565b6020820152613335604084016132e1565b6040820152613346606084016132e1565b6060820152613357608084016132e1565b608082015261336860a084016132e1565b60a082015261337960c084016132e1565b60c082015261338a60e084016132e1565b60e082015261010061339d8185016132e1565b908201526101206133af8482016132e1565b908201526101406133c18482016132e1565b908201526101606133d38482016132e1565b908201526101806133e58482016132e1565b908201529392505050565b600060ff821660ff84168060ff0382111561340d5761340d6131ba565b01939250505056fea164736f6c634300080d000a",
  "linkReferences": {},
  "deployedLinkReferences": {}
}