{
  "_format": "hh-sol-artifact-1",
  "contractName": "SpaceGameTipJar",
  "sourceName": "contracts/game/SpaceGameTipJar.sol",
  "abi": [
    {
      "inputs": [
        {
          "internalType": "address",
          "name": "_ores",
          "type": "address"
        },
        {
          "internalType": "address",
          "name": "_klaye",
          "type": "address"
        }
      ],
      "stateMutability": "nonpayable",
      "type": "constructor"
    },
    {
      "anonymous": false,
      "inputs": [
        {
          "indexed": true,
          "internalType": "address",
          "name": "previousOwner",
          "type": "address"
        },
        {
          "indexed": true,
          "internalType": "address",
          "name": "newOwner",
          "type": "address"
        }
      ],
      "name": "OwnershipTransferred",
      "type": "event"
    },
    {
      "inputs": [],
      "name": "approveKlaye",
      "outputs": [],
      "stateMutability": "nonpayable",
      "type": "function"
    },
    {
      "inputs": [],
      "name": "approveOre",
      "outputs": [],
      "stateMutability": "nonpayable",
      "type": "function"
    },
    {
      "inputs": [],
      "name": "getWithdrawalBalance",
      "outputs": [
        {
          "internalType": "uint256",
          "name": "ore",
          "type": "uint256"
        },
        {
          "internalType": "uint256",
          "name": "klaye",
          "type": "uint256"
        }
      ],
      "stateMutability": "view",
      "type": "function"
    },
    {
      "inputs": [],
      "name": "klaye",
      "outputs": [
        {
          "internalType": "contract IKLAYE",
          "name": "",
          "type": "address"
        }
      ],
      "stateMutability": "view",
      "type": "function"
    },
    {
      "inputs": [],
      "name": "ores",
      "outputs": [
        {
          "internalType": "contract IORES",
          "name": "",
          "type": "address"
        }
      ],
      "stateMutability": "view",
      "type": "function"
    },
    {
      "inputs": [],
      "name": "owner",
      "outputs": [
        {
          "internalType": "address",
          "name": "",
          "type": "address"
        }
      ],
      "stateMutability": "view",
      "type": "function"
    },
    {
      "inputs": [],
      "name": "renounceOwnership",
      "outputs": [],
      "stateMutability": "nonpayable",
      "type": "function"
    },
    {
      "inputs": [
        {
          "internalType": "uint256",
          "name": "amount",
          "type": "uint256"
        }
      ],
      "name": "tipKlaye",
      "outputs": [],
      "stateMutability": "nonpayable",
      "type": "function"
    },
    {
      "inputs": [
        {
          "internalType": "uint256",
          "name": "amount",
          "type": "uint256"
        }
      ],
      "name": "tipOre",
      "outputs": [],
      "stateMutability": "nonpayable",
      "type": "function"
    },
    {
      "inputs": [],
      "name": "tippedKlaye",
      "outputs": [
        {
          "internalType": "uint256",
          "name": "",
          "type": "uint256"
        }
      ],
      "stateMutability": "view",
      "type": "function"
    },
    {
      "inputs": [],
      "name": "tippedOre",
      "outputs": [
        {
          "internalType": "uint256",
          "name": "",
          "type": "uint256"
        }
      ],
      "stateMutability": "view",
      "type": "function"
    },
    {
      "inputs": [
        {
          "internalType": "address",
          "name": "newOwner",
          "type": "address"
        }
      ],
      "name": "transferOwnership",
      "outputs": [],
      "stateMutability": "nonpayable",
      "type": "function"
    },
    {
      "inputs": [
        {
          "internalType": "address",
          "name": "_klaye",
          "type": "address"
        }
      ],
      "name": "updateKlaye",
      "outputs": [],
      "stateMutability": "nonpayable",
      "type": "function"
    },
    {
      "inputs": [
        {
          "internalType": "address",
          "name": "_ores",
          "type": "address"
        }
      ],
      "name": "updateOre",
      "outputs": [],
      "stateMutability": "nonpayable",
      "type": "function"
    },
    {
      "inputs": [],
      "name": "withdraw",
      "outputs": [],
      "stateMutability": "nonpayable",
      "type": "function"
    }
  ],
  "bytecode": "0x608060405234801561001057600080fd5b50604051610ab0380380610ab083398101604081905261002f916100d5565b61003833610069565b600180546001600160a01b039384166001600160a01b03199182161790915560028054929093169116179055610108565b600080546001600160a01b038381166001600160a01b0319831681178455604051919092169283917f8be0079c531659141344cd1fd0a4f28419497f9722a3daafe3b4186f6b6457e09190a35050565b80516001600160a01b03811681146100d057600080fd5b919050565b600080604083850312156100e857600080fd5b6100f1836100b9565b91506100ff602084016100b9565b90509250929050565b610999806101176000396000f3fe608060405234801561001057600080fd5b50600436106100f55760003560e01c8063715018a611610097578063d48cf8b511610066578063d48cf8b5146101c0578063ecc5fe30146101d3578063f2fde38b146101e6578063f99aea3c146101f957600080fd5b8063715018a61461015f578063797e7ed9146101675780638da5cb5b14610192578063c54d757a146101a357600080fd5b80633ccfd60b116100d35780633ccfd60b14610133578063406e3e671461013b578063420074091461014457806369415c491461015757600080fd5b80631995ec86146100fa5780633b52e6511461010f5780633c45529d14610117575b600080fd5b61010d6101083660046108c3565b61020c565b005b61010d61029a565b61012060045481565b6040519081526020015b60405180910390f35b61010d61031f565b61012060035481565b61010d6101523660046108f3565b6104ac565b61010d610542565b61010d610585565b60025461017a906001600160a01b031681565b6040516001600160a01b03909116815260200161012a565b6000546001600160a01b031661017a565b6101ab6105eb565b6040805192835260208301919091520161012a565b61010d6101ce3660046108f3565b610670565b60015461017a906001600160a01b031681565b61010d6101f43660046108c3565b6106fe565b61010d6102073660046108c3565b6107dd565b6000546001600160a01b0316331461026b5760405162461bcd60e51b815260206004820181905260248201527f4f776e61626c653a2063616c6c6572206973206e6f7420746865206f776e657260448201526064015b60405180910390fd5b6002805473ffffffffffffffffffffffffffffffffffffffff19166001600160a01b0392909216919091179055565b60015460405163095ea7b360e01b81523060048201526c0c9f2c9cd04674edea4000000060248201526001600160a01b039091169063095ea7b3906044015b6020604051808303816000875af11580156102f8573d6000803e3d6000fd5b505050506040513d601f19601f8201168201806040525081019061031c919061090c565b50565b6000546001600160a01b031633146103795760405162461bcd60e51b815260206004820181905260248201527f4f776e61626c653a2063616c6c6572206973206e6f7420746865206f776e65726044820152606401610262565b6002546006546004546001600160a01b03909216916323b872dd91309133916103a19161095d565b6040517fffffffff0000000000000000000000000000000000000000000000000000000060e086901b1681526001600160a01b03938416600482015292909116602483015260448201526064016020604051808303816000875af115801561040d573d6000803e3d6000fd5b505050506040513d601f19601f82011682018060405250810190610431919061090c565b506001546005546003546001600160a01b03909216916323b872dd913091339161045a9161095d565b6040517fffffffff0000000000000000000000000000000000000000000000000000000060e086901b1681526001600160a01b03938416600482015292909116602483015260448201526064016102d9565b6001546040516323b872dd60e01b8152336004820152306024820152604481018390526001600160a01b03909116906323b872dd906064016020604051808303816000875af1158015610503573d6000803e3d6000fd5b505050506040513d601f19601f82011682018060405250810190610527919061090c565b50806003600082825461053a9190610974565b909155505050565b60025460405163095ea7b360e01b81523060048201526c0c9f2c9cd04674edea4000000060248201526001600160a01b039091169063095ea7b3906044016102d9565b6000546001600160a01b031633146105df5760405162461bcd60e51b815260206004820181905260248201527f4f776e61626c653a2063616c6c6572206973206e6f7420746865206f776e65726044820152606401610262565b6105e96000610866565b565b6000805481906001600160a01b031633146106485760405162461bcd60e51b815260206004820181905260248201527f4f776e61626c653a2063616c6c6572206973206e6f7420746865206f776e65726044820152606401610262565b600554600354610658919061095d565b915060065460045461066a919061095d565b90509091565b6002546040516323b872dd60e01b8152336004820152306024820152604481018390526001600160a01b03909116906323b872dd906064016020604051808303816000875af11580156106c7573d6000803e3d6000fd5b505050506040513d601f19601f820116820180604052508101906106eb919061090c565b50806004600082825461053a9190610974565b6000546001600160a01b031633146107585760405162461bcd60e51b815260206004820181905260248201527f4f776e61626c653a2063616c6c6572206973206e6f7420746865206f776e65726044820152606401610262565b6001600160a01b0381166107d45760405162461bcd60e51b815260206004820152602660248201527f4f776e61626c653a206e6577206f776e657220697320746865207a65726f206160448201527f64647265737300000000000000000000000000000000000000000000000000006064820152608401610262565b61031c81610866565b6000546001600160a01b031633146108375760405162461bcd60e51b815260206004820181905260248201527f4f776e61626c653a2063616c6c6572206973206e6f7420746865206f776e65726044820152606401610262565b6001805473ffffffffffffffffffffffffffffffffffffffff19166001600160a01b0392909216919091179055565b600080546001600160a01b0383811673ffffffffffffffffffffffffffffffffffffffff19831681178455604051919092169283917f8be0079c531659141344cd1fd0a4f28419497f9722a3daafe3b4186f6b6457e09190a35050565b6000602082840312156108d557600080fd5b81356001600160a01b03811681146108ec57600080fd5b9392505050565b60006020828403121561090557600080fd5b5035919050565b60006020828403121561091e57600080fd5b815180151581146108ec57600080fd5b7f4e487b7100000000000000000000000000000000000000000000000000000000600052601160045260246000fd5b60008282101561096f5761096f61092e565b500390565b600082198211156109875761098761092e565b50019056fea164736f6c634300080d000a",
  "linkReferences": {},
  "deployedLinkReferences": {}
}